:100000000C942A000C9447000C9447000C94470071
:100010000C9447000C9447000C9447000C94470044
:100020000C9447000C9447000C9447000C94470034
:100030000C9447000C9447000C9447000C94470024
:100040000C94801A0C9447000C9447000C944700C1
:100050000C94470011241FBECFE5D8E0DEBFCDBF12
:1000600011E0A0E6B0E0EAE5F3E502C005900D92EC
:10007000A43AB107D9F711E0A4EAB1E001C01D929A
:10008000AE3AB107E1F70E948C250C94AB290C9491
:100090000000EF92FF920F931F937B018C0120E0F1
:1000A00030E040E05FE40E94110588238CF0C80135
:1000B000B70120E030E040E05FE40E94DD020E94F2
:1000C000CF059B01AC01205030404040504806C055
:1000D000C801B7010E94CF059B01AC01B901CA015B
:1000E0001F910F91FF90EF900895EF92FF920F9361
:1000F0001F937B018C0120E030E040E050E00E9443
:10010000410588230CF05CC0C801B70190580E94DB
:10011000E9002195E1E0121608F0E0E03195F1E008
:10012000131608F0F0E0E32EEE1AE1E03E1508F0B9
:10013000E0E0FE2B4195A1E0141608F0A0E0F42EBB
:10014000FF1AE1E04F1508F0E0E0AE2B5195F1E029
:10015000151608F0F0E0052F0A1BE1E0501708F033
:10016000E0E0FE2B6195A1E0161608F0A0E0162F46
:100170001F1BE1E0611708F0E0E0AE2B7195F1E0A4
:10018000171608F0F0E0B72FBA1BE1E07B1708F074
:10019000E0E0FE2B8195A1E0181608F0A0E0382FD2
:1001A0003F1BF32FE1E0831708F0E0E0AE2B9195C1
:1001B0003E2D4F2D502F612F7B2F8F2F9A1B04C068
:1001C000C801B7010E94E9001F910F91FF90EF90C5
:1001D0000895A0E0B0E0EFEEF0E00C94D3267B01B0
:1001E0008C0120E030E040E85FE30E944105882375
:1001F0004CF4AA24BB24CC24DD24EE24FF2400E00C
:1002000010E086C0C801B70120E030E040E85FE4BC
:100210000E944105882354F4C801B7010E94490097
:100220005B016C01EE24FF24870172C0C801B70195
:1002300020E030E040E85FE50E94410587FD0FC007
:10024000AA24AA94BB24BA94CC24CA94DD24DA94B8
:10025000EE24EA94FF24FA940FEF1FEF59C0C8016F
:10026000B70120E030E040E85FE20E943B037B0101
:100270008C0122243324210190E1A92EB12CC12C20
:10028000D12CC0E0D0E061E070E080E090E00A2C8A
:1002900004C0660F771F881F991F0A94D2F70E9427
:1002A00023063B014C01C801B701A40193010E9440
:1002B0001105882364F02A283B284C285D28C801B2
:1002C000B701A40193010E9435047B018C01D694EF
:1002D000C794B794A7942196C530D105A1F6C8015B
:1002E000B70120E030E040E85FE40E943B030E9459
:1002F00049005B016C019B01A60160E070E080E0B9
:1003000090E0022D0E949C0659016A017B018C013C
:100310009501A601B701C801CDB7DEB7E2E10C94A3
:10032000EF26A0E0B0E0E7E9F1E00C94D326DC0191
:100330002B01FA019C91923008F439C1EB018881BC
:10034000823008F433C1943069F4843009F02FC14D
:1003500011969C9111978981981709F428C1ADE6EF
:10036000B0E025C1843009F421C18230A9F4923073
:1003700009F01DC19A01AD0188E0EA010990AE01C2
:10038000E90109929E018150C1F7E201898111962C
:100390009C918923818308C1923009F407C1129688
:1003A0002D903C901397EB018A819B811496AD9020
:1003B000BD90CD90DC901797EC80FD800E811F8161
:1003C0009101281B390BB90137FF04C06627772735
:1003D000621B730B603271050CF061C012161306BC
:1003E0006CF537014801062E04C0969487947794E3
:1003F00067940A94D2F721E030E040E050E004C076
:10040000220F331F441F551F6A95D2F721503040E9
:10041000404050402E213F214023512321153105DA
:100420004105510521F021E030E040E050E0790144
:100430008A01E628F728082919293CC0232BD1F185
:10044000260E371E35014601062E04C09694879469
:10045000779467940A94D2F721E030E040E050E0CE
:1004600004C0220F331F441F551F6A95D2F7215035
:100470003040404050402A213B214C215D21211534
:1004800031054105510521F021E030E040E050E028
:1004900059016A01A628B728C828D9280BC0821597
:1004A00093052CF01C01AA24BB24650103C0EE2493
:1004B000FF24870111969C91D20111968C91981777
:1004C00009F445C0992339F0A80197012A193B097D
:1004D0004C095D0906C0A60195012E193F09400B84
:1004E000510B57FD08C01182338222822483358349
:1004F000468357831DC081E081833382228288270F
:100500009927DC01821B930BA40BB50B8483958385
:10051000A683B7830DC0220F331F441F551F2483AA
:1005200035834683578382819381019793838283A6
:100530002481358146815781DA01C9010197A109DA
:10054000B1098F5F9F4FAF4FBF4328F30BC091831B
:1005500033822282EA0CFB1C0C1D1D1DE482F582F5
:100560000683178383E08083248135814681578108
:1005700057FF1AC0C901AA2797FDA095BA2F81700D
:100580009070A070B0705695479537952795822B3F
:10059000932BA42BB52B84839583A683B783828169
:1005A0009381019693838283DF0101C0D201CD0143
:1005B000CDB7DEB7E2E10C94EF26A0E2B0E0E3EEC7
:1005C000F2E00C94DF2669837A838B839C832D83EE
:1005D0003E834F835887E9E0EE2EF12CEC0EFD1E92
:1005E000CE010196B7010E943F088E010F5E1F4F9A
:1005F000CE010596B8010E943F088A8991E08927BB
:100600008A8BC701B801AE01475E5F4F0E9491011E
:100610000E946A07A096E6E00C94FB26A0E2B0E0F8
:10062000E4E1F3E00C94DF2669837A838B839C8377
:100630002D833E834F835887F9E0EF2EF12CEC0E8B
:10064000FD1ECE010196B7010E943F088E010F5E8C
:100650001F4FCE010596B8010E943F08C701B8019F
:10066000AE01475E5F4F0E9491010E946A07A0960B
:10067000E6E00C94FB26A0E2B0E0E1E4F3E00C94A9
:10068000D32669837A838B839C832D833E834F8318
:100690005887CE010196BE01675F7F4F0E943F08D9
:1006A000CE010596BE016F5E7F4F0E943F0899857F
:1006B000923088F089898230C8F0943019F4823001
:1006C00051F404C0843029F4923081F48DE690E036
:1006D000C6C0923049F420E09A858A89981321E0B7
:1006E0002A87CE010996BBC0823049F420E09A8562
:1006F0008A89981321E02A8BCE014196B0C02D84BF
:100700003E844F8458886D887E888F88988CEE242C
:10071000FF248701AA24BB24650140E050E060E08B
:1007200070E0E0E0F0E0C10181709070892BE9F0A9
:10073000E60CF71C081D191D9A01AB012A0D3B1D83
:100740004C1D5D1D80E090E0A0E0B0E0E614F704F1
:100750000805190520F481E090E0A0E0B0E0BA01BE
:10076000A901480F591F6A1F7B1FAA0CBB1CCC1C78
:10077000DD1C97FE08C081E090E0A0E0B0E0A82A70
:10078000B92ACA2ADB2A3196E032F10549F0660C13
:10079000771C881C991C5694479437942794C3CF90
:1007A000FA85EA892B893C898B859C85280F391F1E
:1007B0002E5F3F4F17C0CA0181709070892B61F086
:1007C00016950795F794E79480E090E0A0E0B0E8F4
:1007D000E82AF92A0A2B1B2B76956795579547959A
:1007E0002F5F3F4F77FDE7CF0CC0440F551F661FAB
:1007F000771F17FD4160EE0CFF1C001F111F2150D9
:100800003040403090E0590790E0690790E4790764
:1008100060F32B8F3C8FDB01CA018F779070A07043
:10082000B07080349105A105B10561F447FD0AC09F
:10083000E114F1040105110529F0405C5F4F6F4F91
:100840007F4F40781A8EFE1711F081E08A8F4D8F0E
:100850005E8F6F8F78A383E0898FCE0149960E94C7
:100860006A07A096E2E10C94EF26A8E1B0E0EBE382
:10087000F4E00C94DB2669837A838B839C832D833D
:100880003E834F835887B9E0EB2EF12CEC0EFD1E12
:10089000CE010196B7010E943F088E010F5E1F4FE7
:1008A000CE010596B8010E943F082985223008F440
:1008B0007EC03989323010F4B8017CC08A859A89AB
:1008C00089278A87243011F0223031F4231709F068
:1008D0006EC06DE670E06EC0343039F41D861E8641
:1008E0001F86188A1C861B8604C0323021F484E0DF
:1008F0008987B7015FC02B853C858B899C89281B24
:10090000390B3C872B87ED84FE840F851889AD88D1
:10091000BE88CF88D88CEA14FB040C051D0540F472
:10092000EE0CFF1C001F111F215030403C872B870D
:1009300020E030E040E050E080E090E0A0E0B0E473
:1009400060E070E0EA14FB040C051D0540F0282B64
:10095000392B4A2B5B2BEA18FB080C091D09B695AD
:10096000A79597958795EE0CFF1C001F111F6F5FD1
:100970007F4F6F31710531F7DA01C9018F779070C0
:10098000A070B07080349105A105B10561F427FD18
:100990000AC0E114F1040105110529F0205C3F4F64
:1009A0004F4F5F4F20782D873E874F87588BBE0172
:1009B000675F7F4FCB010E946A076896EAE00C945C
:1009C000F726A8E1B0E0E7EEF4E00C94DF266983B7
:1009D0007A838B839C832D833E834F83588789E062
:1009E000E82EF12CEC0EFD1ECE010196B7010E94FF
:1009F0003F088E010F5E1F4FCE010596B8010E9481
:100A00003F088985823040F08989823028F0C7010B
:100A1000B8010E94B70801C08FEF6896E6E00C9419
:100A2000FB26A8E1B0E0E7E1F5E00C94DF2669835E
:100A30007A838B839C832D833E834F83588789E001
:100A4000E82EF12CEC0EFD1ECE010196B7010E949E
:100A50003F088E010F5E1F4FCE010596B8010E9420
:100A60003F088985823040F08989823028F0C701AB
:100A7000B8010E94B70801C08FEF6896E6E00C94B9
:100A8000FB26A8E1B0E0E7E4F5E00C94DF266983FB
:100A90007A838B839C832D833E834F83588789E0A1
:100AA000E82EF12CEC0EFD1ECE010196B7010E943E
:100AB0003F088E010F5E1F4FCE010596B8010E94C0
:100AC0003F088985823040F08989823028F0C7014B
:100AD000B8010E94B70801C081E06896E6E00C9476
:100AE000FB26A8E0B0E0E7E7F5E00C94DC269B01EC
:100AF000AC0183E08983DA01C9018827B7FD8395BA
:100B00009927AA27BB27B82E211531054105510584
:100B100019F482E089833AC08823A9F0203080E06C
:100B2000380780E0480780E8580729F460E070E063
:100B300080E09FEC30C0EE24FF248701E21AF30A24
:100B4000040B150B02C079018A018EE1C82ED12C4D
:100B5000DC82CB82ED82FE820F831887C801B70149
:100B60000E941B0701971816190684F4082E04C06A
:100B7000EE0CFF1C001F111F0A94D2F7ED82FE82BB
:100B80000F831887C81AD90ADC82CB82BA82CE01B9
:100B900001960E946A072896E9E00C94F826ACE0DA
:100BA000B0E0E5EDF5E00C94E32669837A838B836E
:100BB0009C83CE010196BE016B5F7F4F0E943F0870
:100BC0008D81823061F1823050F1843021F48E8148
:100BD000882351F12EC02F81388537FD20C06E81CA
:100BE0002F3131051CF06623F9F023C08EE190E02F
:100BF000821B930B29853A854B855C8504C05695ED
:100C00004795379527958A95D2F76623B1F0509589
:100C10004095309521953F4F4F4F5F4F0EC020E0DC
:100C200030E040E050E009C02FEF3FEF4FEF5FE7CB
:100C300004C020E030E040E050E8B901CA012C9641
:100C4000E2E00C94FF26A8E0B0E0E9E2F6E00C94C4
:100C5000DB267B018C01611571058105910519F475
:100C600082E0898360C083E089838EE1C82ED12C25
:100C7000DC82CB82ED82FE820F831887C801B70128
:100C80000E941B07FC013197F7FF3BC02227332747
:100C90002E1B3F0B57016801022E04C0D694C79447
:100CA000B794A7940A94D2F740E050E060E070E077
:100CB00081E090E0A0E0B0E004C0880F991FAA1F77
:100CC000BB1F2A95D2F70197A109B1098E219F2157
:100CD000A023B1230097A105B10521F041E050E028
:100CE00060E070E04A295B296C297D294D835E8391
:100CF0006F8378878EE190E08E1B9F0B9C838B83A4
:100D000012C0309781F00E2E04C0EE0CFF1C001FA5
:100D1000111F0A94D2F7ED82FE820F831887CE1A34
:100D2000DF0ADC82CB821A82CE0101960E946A071A
:100D30002896EAE00C94F726EF92FF920F93DF9348
:100D4000CF93CDB7DEB760970FB6F894DEBF0FBE76
:100D5000CDBFA82F002309F461C07E010894E11CD7
:100D6000F11C88E0F70111928A95E9F729833A830B
:100D70004B835C836D837E83AF83988780E2801B87
:100D8000E82FFF27E7FDF09549815A816B817C812F
:100D9000181684F019861A861B861C8688279927C0
:100DA0008E1B9F0B04C0440F551F661F771F8A952B
:100DB000D2F728C0202F332727FD3095DB01CA0149
:100DC000022E04C0880F991FAA1FBB1F0A94D2F7D6
:100DD00089879A87AB87BC8704C0769567955795B6
:100DE0004795EA95D2F78D819E81AF81B88504C081
:100DF000880F991FAA1FBB1F2A95D2F7482B592B82
:100E00006A2B7B2B4D875E876F87788B29853A8588
:100E10004B855C856D857E85AF8598898A2F609628
:100E20000FB6F894DEBF0FBECDBFCF91DF910F910B
:100E3000FF90EF900895EF92FF920F931F937B0125
:100E40008C0180E0E81680E0F80681E0080780E089
:100E5000180788F48FEFE816F1040105110531F049
:100E600028F088E090E0A0E0B0E017C080E090E0DB
:100E7000A0E0B0E012C080E0E81680E0F80680E074
:100E8000080781E0180728F088E190E0A0E0B0E0D2
:100E900004C080E190E0A0E0B0E020E230E040E07B
:100EA00050E0281B390B4A0B5B0B04C016950795C5
:100EB000F794E7948A95D2F7F701EB58FF4F8081BA
:100EC000281B310941095109C9011F910F91FF9058
:100ED000EF900895DF92EF92FF920F931F93FC0122
:100EE000E480F58006811781D1808081823048F4CA
:100EF00080E090E0A0E1B0E0E82AF92A0A2B1B2B61
:100F0000A5C0843009F49FC0823021F4EE24FF2470
:100F1000870105C0E114F1040105110519F4E0E0B1
:100F2000F0E096C0628173819FEF623879070CF020
:100F30005BC022E83FEF261B370B2A3131052CF02E
:100F400020E030E040E050E02AC0B801A701022EC6
:100F500004C076956795579547950A94D2F781E036
:100F600090E0A0E0B0E004C0880F991FAA1FBB1F4B
:100F70002A95D2F70197A109B1098E219F21A023BB
:100F8000B1230097A105B10521F081E090E0A0E038
:100F9000B0E09A01AB01282B392B4A2B5B2BDA01ED
:100FA000C9018F779070A070B07080349105A10551
:100FB000B10539F427FF09C0205C3F4F4F4F5F4F09
:100FC00004C0215C3F4F4F4F5F4FE0E0F0E0203026
:100FD000A0E03A07A0E04A07A0E45A0710F0E1E0D9
:100FE000F0E079018A0127C06038710564F5FB01E2
:100FF000E158FF4FD801C7018F779070A070B07093
:1010000080349105A105B10539F4E7FE0DC080E4F7
:1010100090E0A0E0B0E004C08FE390E0A0E0B0E09A
:10102000E80EF91E0A1F1B1F17FF05C0169507952E
:10103000F794E794319687E016950795F794E7942F
:101040008A95D1F705C0EE24FF248701EFEFF0E089
:101050006E2F679566276795902F9F77D794DD242D
:10106000D7948E2F8695492F462B582F5D29B7018F
:10107000CA011F910F91FF90EF90DF900895FC013E
:10108000DB01408151812281622F6F7770E0221F46
:101090002227221F9381892F880F822B282F30E04F
:1010A000991F9927991F11969C9311972115310526
:1010B000A9F5411551056105710511F482E037C0AC
:1010C00082E89FEF13969C938E9312979A01AB013F
:1010D00067E0220F331F441F551F6A95D1F783E045
:1010E0008C930DC0220F331F441F551F12968D91F4
:1010F0009C911397019713969C938E93129720308F
:1011000080E0380780E0480780E4580758F31496D9
:101110002D933D934D935C93179708952F3F310581
:1011200079F4411551056105710519F484E08C933A
:10113000089564FF03C081E08C9312C01C9210C01C
:101140002F57304013963C932E93129783E08C9345
:1011500087E0440F551F661F771F8A95D1F770648B
:1011600014964D935D936D937C93179708951F93F9
:10117000DC01FB019C91923008F447C080818230F1
:1011800008F443C0943051F411961C91843099F5C1
:101190008181682F70E0611B71093FC0843021F0AC
:1011A000923031F48230B9F18181882389F12DC0E8
:1011B00011961C9111978230F1F081811817D9F4A2
:1011C00012962D913C9113978281938182179307F8
:1011D00094F028173907BCF014968D919D910D90CD
:1011E000BC91A02D2481358146815781281739076C
:1011F0004A075B0718F4112341F00AC082179307CE
:10120000A407B50740F4112319F061E070E005C0B0
:101210006FEF7FEF02C060E070E0CB011F91089597
:10122000DF93CF9300D00F92CDB7DEB769837A8377
:101230008B8389819A81692F41E00E943B1B0F902B
:101240000F900F90CF91DF910895DF93CF9300D04F
:101250000F92CDB7DEB769837A838B838B81813020
:1012600039F489819A81692F41E00E944A1C09C0A2
:101270008B81882331F489819A81692F41E00E9412
:101280004A1C0F900F900F90CF91DF910895DF933C
:10129000CF9300D00F92CDB7DEB769837A838B836B
:1012A0008B81813039F489819A81692F41E00E94D4
:1012B0004A1C09C08B81882331F489819A81692F66
:1012C00041E00E944A1C0F900F900F90CF91DF9148
:1012D0000895DF93CF9300D00F92CDB7DEB7698327
:1012E0007A838B8389819A81692F0E941E1E0F90B9
:1012F0000F900F90CF91DF9108950F931F93DF937D
:10130000CF93CDB7DEB7C455D0400FB6F894DEBF4B
:101310000FBECDBFFE01EF5AFF4F80E090E0A8E482
:10132000B2E480839183A283B3838E01035B1F4F5A
:10133000FE01EF5AFF4F608171818281938120E02D
:1013400030E04AEF54E40E943B03DC01CB01F8019A
:1013500080839183A283B383FE01E35BFF4F6081AF
:1013600071818281938120E030E040E85FE30E9458
:101370004105882344F4FE01E55BFF4F81E090E0E6
:101380009183808364C0FE01E35BFF4F60817181C4
:101390008281938120E03FEF4FE757E40E94E10410
:1013A00018160CF043C0FE01EF5AFF4F60817181A7
:1013B0008281938120E030E040E251E40E943B03CF
:1013C000DC01CB018E01055B1F4FBC01CD010E94EA
:1013D0004900DC01CB01F801918380831FC0FE012D
:1013E000E75BFF4F88EC90E091838083FE01E75B31
:1013F000FF4F808191810197F1F7FE01E75BFF4F7D
:1014000091838083DE01A55BBF4FFE01E55BFF4F4B
:1014100080819181019711969C938E93FE01E55BEB
:10142000FF4F808191810097D1F627C08E01055B27
:101430001F4FFE01E35BFF4F6081718182819381C9
:101440000E944900DC01CB01F80191838083DE0119
:10145000A95BBF4FFE01E55BFF4F808191818D93BA
:101460009C93FE01E95BFF4F808191810197F1F729
:10147000FE01E95BFF4F9183808381E060E041E002
:101480000E943B1B81E061E041E00E943B1B81E048
:1014900062E041E00E943B1B81E063E041E00E948A
:1014A0003B1B81E065E041E00E943B1B81E066E080
:1014B00041E00E943B1B81E067E041E00E943B1B52
:1014C00082E00E94670DFE01ED5BFF4F80E090E03F
:1014D000A0E2B1E480839183A283B3838E01015C97
:1014E0001F4FFE01ED5BFF4F60817181828193810F
:1014F00020E030E04AEF54E40E943B03DC01CB01E2
:10150000F80180839183A283B383FE01FF966081FB
:1015100071818281938120E030E040E85FE30E94A6
:10152000410588232CF481E090E09EAF8DAF46C04A
:10153000FE01FF96608171818281938120E03FEFFF
:101540004FE757E40E94E104181664F5FE01ED5BD5
:10155000FF4F608171818281938120E030E040E221
:1015600051E40E943B03DC01CB01BC01CD010E9490
:101570004900DC01CB019EAF8DAF0FC088EC90E03D
:101580009CAF8BAF8BAD9CAD0197F1F79CAF8BAF50
:101590008DAD9EAD01979EAF8DAF8DAD9EAD009789
:1015A00069F716C0FE01FF96608171818281938187
:1015B0000E944900DC01CB019EAF8DAF8DAD9EAD89
:1015C0009AAF89AF89AD9AAD0197F1F79AAF89AF1C
:1015D00084E00E94670D80E090E0A0E0B0E48DAB75
:1015E0009EABAFABB8AF6DA97EA98FA998AD20E037
:1015F00030E04AEF54E40E943B03DC01CB0189ABAD
:101600009AABABABBCAB69A97AA98BA99CA920E02A
:1016100030E040E85FE30E94410588232CF481E03C
:1016200090E098AB8FA73FC069A97AA98BA99CA924
:1016300020E03FEF4FE757E40E94E10418164CF515
:101640006DA97EA98FA998AD20E030E040E251E479
:101650000E943B03DC01CB01BC01CD010E9449008B
:10166000DC01CB0198AB8FA70FC088EC90E09EA760
:101670008DA78DA59EA50197F1F79EA78DA78FA594
:1016800098A9019798AB8FA78FA598A9009769F79C
:1016900014C069A97AA98BA99CA90E944900DC0100
:1016A000CB0198AB8FA78FA598A99CA78BA78BA5DB
:1016B0009CA50197F1F79CA78BA78EE00E94670D70
:1016C00080E090E0A0E0B0E48FA398A7A9A7BAA714
:1016D0006FA178A589A59AA520E030E04AEF54E4EF
:1016E0000E943B03DC01CB018BA39CA3ADA3BEA353
:1016F0006BA17CA18DA19EA120E030E040E85FE3DA
:101700000E94410588232CF481E090E09AA389A3EC
:101710003FC06BA17CA18DA19EA120E03FEF4FE7D0
:1017200057E40E94E10418164CF56FA178A589A52D
:101730009AA520E030E040E251E40E943B03DC0146
:10174000CB01BC01CD010E944900DC01CB019AA371
:1017500089A30FC088EC90E098A38F8F8F8D98A1FC
:101760000197F1F798A38F8F89A19AA101979AA366
:1017700089A389A19AA1009769F714C06BA17CA1E4
:101780008DA19EA10E944900DC01CB019AA389A3EF
:1017900089A19AA19E8F8D8F8D8D9E8D0197F1F7D6
:1017A0009E8F8D8F0E94310F80E090E0A0E0B0E42A
:1017B000898F9A8FAB8FBC8F698D7A8D8B8D9C8D25
:1017C00020E030E04AEF54E40E943B03DC01CB010F
:1017D0008D8B9E8BAF8BB88F6D897E898F89988D0D
:1017E00020E030E040E85FE30E94410588232CF4CC
:1017F00081E090E09C8B8B8B3FC06D897E898F89C7
:10180000988D20E03FEF4FE757E40E94E10418165F
:101810004CF5698D7A8D8B8D9C8D20E030E040E217
:1018200051E40E943B03DC01CB01BC01CD010E94CD
:101830004900DC01CB019C8B8B8B0FC088EC90E0C6
:101840009A8B898B89899A890197F1F79A8B898B71
:101850008B899C8901979C8B8B8B8B899C890097AA
:1018600069F714C06D897E898F89988D0E9449001F
:10187000DC01CB019C8B8B8B8B899C89988B8F8710
:101880008F8598890197F1F7988B8F8786E00E9462
:10189000670D80E090E0A0E0B0E48B879C87AD8787
:1018A000BE876B857C858D859E8520E030E04AEF84
:1018B00054E40E943B03DC01CB018F839887A98706
:1018C000BA876F81788589859A8520E030E040E885
:1018D0005FE30E94410588232CF481E090E09E8321
:1018E0008D833FC06F81788589859A8520E03FEFA1
:1018F0004FE757E40E94E10418164CF56B857C8590
:101900008D859E8520E030E040E251E40E943B035B
:10191000DC01CB01BC01CD010E944900DC01CB01FF
:101920009E838D830FC088EC90E09C838B838B819A
:101930009C810197F1F79C838B838D819E81019718
:101940009E838D838D819E81009769F714C06F817E
:10195000788589859A850E944900DC01CB019E83A8
:101960008D838D819E819A83898389819A81019754
:10197000F1F79A838983CC5ADF4F0FB6F894DEBF14
:101980000FBECDBFCF91DF911F910F910895DF93CF
:10199000CF93CDB7DEB72F970FB6F894DEBF0FBE4B
:1019A000CDBF8F8781E065E041E00E944A1C81E065
:1019B00066E040E00E944A1C8F85982F92959F70A8
:1019C00081E0692F0E9447210E94300E81E06F85DF
:1019D0000E9447210E94300E80E090E0A0E0B0E439
:1019E0008B879C87AD87BE876B857C858D859E8523
:1019F00020E030E04AEF54E40E943B03DC01CB01DD
:101A00008F839887A987BA876F81788589859A851A
:101A100020E030E040E85FE30E94410588232CF499
:101A200081E090E09E838D833FC06F8178858985BA
:101A30009A8520E03FEF4FE757E40E94E104181633
:101A40004CF56B857C858D859E8520E030E040E2FD
:101A500051E40E943B03DC01CB01BC01CD010E949B
:101A60004900DC01CB019E838D830FC088EC90E0A0
:101A70009C838B838B819C810197F1F79C838B8363
:101A80008D819E8101979E838D838D819E8100979C
:101A900069F714C06F81788589859A850E9449000D
:101AA000DC01CB019E838D838D819E819A83898306
:101AB00089819A810197F1F79A8389832F960FB6CE
:101AC000F894DEBF0FBECDBFCF91DF910895DF93B5
:101AD000CF93CDB7DEB72F970FB6F894DEBF0FBE0A
:101AE000CDBF8F8781E065E040E00E944A1C81E025
:101AF00066E040E00E944A1C8F85982F92959F7067
:101B000081E0692F0E9447210E94300E81E06F859D
:101B10000E9447210E94300E80E090E0A0E0B0E4F7
:101B20008B879C87AD87BE876B857C858D859E85E1
:101B300020E030E04AEF54E40E943B03DC01CB019B
:101B40008F839887A987BA876F81788589859A85D9
:101B500020E030E040E85FE30E94410588232CF458
:101B600081E090E09E838D833FC06F817885898579
:101B70009A8520E03FEF4FE757E40E94E1041816F2
:101B80004CF56B857C858D859E8520E030E040E2BC
:101B900051E40E943B03DC01CB01BC01CD010E945A
:101BA0004900DC01CB019E838D830FC088EC90E05F
:101BB0009C838B838B819C810197F1F79C838B8322
:101BC0008D819E8101979E838D838D819E8100975B
:101BD00069F714C06F81788589859A850E944900CC
:101BE000DC01CB019E838D838D819E819A838983C5
:101BF00089819A810197F1F79A8389832F960FB68D
:101C0000F894DEBF0FBECDBFCF91DF910895DF9373
:101C1000CF9300D00F92CDB7DEB79B838A83198212
:101C20000EC08981282F30E08A819B81FC01E20F60
:101C3000F31F80810E94C70C89818F5F898389810E
:101C4000282F30E08A819B81FC01E20FF31F808105
:101C5000882339F70F900F900F90CF91DF9108955F
:101C6000DF93CF93CDB7DEB76C970FB6F894DEBF96
:101C70000FBECDBF81E067E041E00E944A1C80E0DA
:101C800090E0A0E8BFE3898F9A8FAB8FBC8F698DFE
:101C90007A8D8B8D9C8D20E030E04AEF54E40E94D9
:101CA0003B03DC01CB018D8B9E8BAF8BB88F6D8995
:101CB0007E898F89988D20E030E040E85FE30E94C4
:101CC000410588232CF481E090E09C8B8B8B3FC0F6
:101CD0006D897E898F89988D20E03FEF4FE757E42B
:101CE0000E94E10418164CF5698D7A8D8B8D9C8DC0
:101CF00020E030E040E251E40E943B03DC01CB01F4
:101D0000BC01CD010E944900DC01CB019C8B8B8B77
:101D10000FC088EC90E09A8B898B89899A8901970A
:101D2000F1F79A8B898B8B899C8901979C8B8B8B84
:101D30008B899C89009769F714C06D897E898F898A
:101D4000988D0E944900DC01CB019C8B8B8B8B8989
:101D50009C89988B8F878F8598890197F1F7988B4D
:101D60008F8781E067E040E00E944A1C80E090E0BD
:101D7000A0E8BFE38B879C87AD87BE876B857C859A
:101D80008D859E8520E030E04AEF54E40E943B03BD
:101D9000DC01CB018F839887A987BA876F8178850B
:101DA00089859A8520E030E040E85FE30E944105A4
:101DB00088232CF481E090E09E838D833FC06F8167
:101DC000788589859A8520E03FEF4FE757E40E94A8
:101DD000E10418164CF56B857C858D859E8520E089
:101DE00030E040E251E40E943B03DC01CB01BC0146
:101DF000CD010E944900DC01CB019E838D830FC081
:101E000088EC90E09C838B838B819C810197F1F718
:101E10009C838B838D819E8101979E838D838D8191
:101E20009E81009769F714C06F81788589859A85AE
:101E30000E944900DC01CB019E838D838D819E81B0
:101E40009A83898389819A810197F1F79A8389839B
:101E50006C960FB6F894DEBF0FBECDBFCF91DF9169
:101E60000895DF93CF93CDB7DEB72E970FB6F894D2
:101E7000DEBF0FBECDBF81E00E94670D80E090E025
:101E8000A0E2B1E48B879C87AD87BE876B857C859C
:101E90008D859E8520E030E04AEF54E40E943B03AC
:101EA000DC01CB018F839887A987BA876F817885FA
:101EB00089859A8520E030E040E85FE30E94410593
:101EC00088232CF481E090E09E838D833FC06F8156
:101ED000788589859A8520E03FEF4FE757E40E9497
:101EE000E10418164CF56B857C858D859E8520E078
:101EF00030E040E251E40E943B03DC01CB01BC0135
:101F0000CD010E944900DC01CB019E838D830FC06F
:101F100088EC90E09C838B838B819C810197F1F707
:101F20009C838B838D819E8101979E838D838D8180
:101F30009E81009769F714C06F81788589859A859D
:101F40000E944900DC01CB019E838D838D819E819F
:101F50009A83898389819A810197F1F79A8389838A
:101F60002E960FB6F894DEBF0FBECDBFCF91DF9196
:101F70000895DF93CF93CDB7DEB761970FB6F8948E
:101F8000DEBF0FBECDBF888B698B8889833048F454
:101F90008889882331F08989813118F489898823D7
:101FA00019F480E88F870DC08889813021F48989F0
:101FB00081588F8706C08889823019F489898154B5
:101FC0008F878F850E94670D80E090E0A0E8BFE3D7
:101FD0008B879C87AD87BE876B857C858D859E852D
:101FE00020E030E04AEF54E40E943B03DC01CB01E7
:101FF0008F839887A987BA876F81788589859A8525
:1020000020E030E040E85FE30E94410588232CF4A3
:1020100081E090E09E838D833FC06F8178858985C4
:102020009A8520E03FEF4FE757E40E94E10418163D
:102030004CF56B857C858D859E8520E030E040E207
:1020400051E40E943B03DC01CB01BC01CD010E94A5
:102050004900DC01CB019E838D830FC088EC90E0AA
:102060009C838B838B819C810197F1F79C838B836D
:102070008D819E8101979E838D838D819E810097A6
:1020800069F714C06F81788589859A850E94490017
:10209000DC01CB019E838D838D819E819A83898310
:1020A00089819A810197F1F79A83898361960FB6A6
:1020B000F894DEBF0FBECDBFCF91DF910895DF93BF
:1020C000CF9300D00F92CDB7DEB78A836B8319828E
:1020D00080E40E94670D19820CC08981882F90E0EE
:1020E000FC01EB58FE4F80810E94C70C89818F5FF5
:1020F00089838981883188F38A816B810E94B90F35
:10210000198206C089810E94C70C89818F5F8983EB
:1021100089818830B8F30F900F900F90CF91DF91A5
:102120000895EF92FF920F931F93DF93CF93CDB754
:10213000DEB728970FB6F894DEBF0FBECDBF6D8314
:102140007E838F83988781E090E0A0E0B0E0898370
:102150009A83AB83BC838D819E81AF81B8850097C4
:10216000A105B10521F480E30E94C70C85C08D81D3
:102170009E81AF81B885BB230CF049C08DE20E94DF
:10218000C70C8D819E81AF81B885B095A095909543
:1021900081959F4FAF4FBF4F8D839E83AF83B8878D
:1021A00036C089819A81AB81BC812AE030E040E071
:1021B00050E0BC01CD010E9463267B018C018D8122
:1021C0009E81AF81B8852AE030E040E050E0BC015C
:1021D000CD010E94B826DC01CB018E0D9F1DA01FF2
:1021E000B11F89839A83AB83BC838D819E81AF812C
:1021F000B8852AE030E040E050E0BC01CD010E940B
:10220000B826DA01C9018D839E83AF83B8878D819B
:102210009E81AF81B8850097A105B10511F623C055
:1022200089819A81AB81BC812AE030E040E050E0B6
:10223000BC01CD010E949626DC01CB01805D0E948D
:10224000C70C89819A81AB81BC812AE030E040E0F3
:1022500050E0BC01CD010E949626DA01C9018983B4
:102260009A83AB83BC8389819A81AB81BC818130A5
:102270009105A105B105A1F628960FB6F894DEBF29
:102280000FBECDBFCF91DF911F910F91FF90EF90C7
:102290000895AF92BF92CF92DF92EF92FF920F9389
:1022A0001F93DF93CF9300D000D0CDB7DEB7698303
:1022B0007A838B839C8369817A818B819C810E9444
:1022C000CF05DC01CB01BC01CD010E9491106981D9
:1022D0007A818B819C8120E030E040E050E00E94D8
:1022E000410588234CF489819A81AB81BC81B05827
:1022F00089839A83AB83BC8369817A818B819C813A
:102300000E94CF05DC01CB01BC01CD010E9471050B
:102310009B01AC0169817A818B819C810E94DD02E5
:10232000DC01CB0189839A83AB83BC8369817A8189
:102330008B819C8120E030E44CE156E40E943B0319
:10234000DC01CB0189839A83AB83BC8369817A8169
:102350008B819C810E947500A22EB32EC42ED52E97
:10236000E62EF72E082F192F8A2D8B298C298D29DF
:102370008E298F29802B812B882379F08EE20E9471
:10238000C70C69817A818B819C810E94CF05DC0119
:10239000CB01BC01CD010E9491100F900F900F90C6
:1023A0000F90CF91DF911F910F91FF90EF90DF90F1
:1023B000CF90BF90AF900895DF93CF9300D000D01F
:1023C00000D0CDB7DEB79B838A836C8319828C8162
:1023D000282F30E03E832D838D819E8181309105B1
:1023E000F9F02D813E812230310579F18D819E8178
:1023F000009709F03FC0EA81FB818081EA81FB817F
:102400009181692F40E00E944A1CEA81FB81808112
:10241000EA81FB819281692F41E00E944A1C2CC015
:10242000EA81FB818081EA81FB819181692F41E012
:102430000E944A1CEA81FB818081EA81FB819281B2
:10244000692F40E00E944A1C17C0EA81FB8180810D
:10245000EA81FB819181692F40E00E944A1CEA8158
:10246000FB818081EA81FB819281692F40E00E949B
:102470004A1C02C081E08983898126960FB6F894B0
:10248000DEBF0FBECDBFCF91DF910895DF93CF9315
:1024900000D00F92CDB7DEB79B838A8381E089831A
:1024A0008A819B810097A9F0EA81FB818081EA8182
:1024B000FB819181692F40E00E943B1BEA81FB81F7
:1024C0008081EA81FB819181692F41E00E94EE1FAA
:1024D000198289810F900F900F90CF91DF9108950D
:1024E000DF93CF9300D000D000D0CDB7DEB79C8370
:1024F0008B837E836D8381E089838B819C810097B0
:10250000F9F08D819E810097D9F0EB81FC8180816B
:10251000EB81FC8191819E012E5F3F4F692FA901C4
:102520000E94591D813061F48A81882329F4ED814C
:10253000FE8181E0808303C0ED81FE8110821982DB
:10254000898126960FB6F894DEBF0FBECDBFCF911E
:10255000DF910895DF93CF93CDB7DEB783E060E0DE
:1025600041E00E94EE1F83E061E041E00E94EE1F27
:1025700083E062E041E00E94EE1F83E063E041E01F
:102580000E94EE1F83E06FE00E94B92283E06FE0BB
:102590000E94C221CF91DF910895DF93CF93CDB7F1
:1025A000DEB762970FB6F894DEBF0FBECDBF8FEFD8
:1025B000898B84E08F87C9C083E06F8540E00E94EB
:1025C0004A1C188AB6C09E012E5E3F4F83E0688980
:1025D000A9010E94591D8A89882309F0A7C080E0BB
:1025E00090E0A8E4B2E48B879C87AD87BE876B85BB
:1025F0007C858D859E8520E030E04AEF54E40E9482
:102600003B03DC01CB018F839887A987BA876F8151
:10261000788589859A8520E030E040E85FE30E9474
:10262000410588232CF481E090E09E838D833FC098
:102630006F81788589859A8520E03FEF4FE757E4E1
:102640000E94E10418164CF56B857C858D859E856E
:1026500020E030E040E251E40E943B03DC01CB018A
:10266000BC01CD010E944900DC01CB019E838D831A
:102670000FC088EC90E09C838B838B819C810197B9
:10268000F1F79C838B838D819E8101979E838D833F
:102690008D819E81009769F714C06F817885898547
:1026A0009A850E944900DC01CB019E838D838D8138
:1026B0009E819A83898389819A810197F1F79A8310
:1026C00089839E012E5E3F4F83E06889A9010E94A5
:1026D000591D8A898823A9F48889482F50E08F855D
:1026E000882F90E09C0124503040CA01880F991F28
:1026F000880F991F820F931FFC01E357FE4F8081C3
:10270000898B9E012E5E3F4F83E06889A9010E945C
:10271000591D08C09E012E5E3F4F83E06889A901C4
:102720000E94591D8A898823A9F307C088898F5F71
:10273000888B8889843008F446CF83E06F8541E038
:102740000E944A1C8F858F5F8F878F85883008F4A1
:1027500033CF898962960FB6F894DEBF0FBECDBF26
:10276000CF91DF910895EF92FF920F931F93DF9324
:10277000CF93CDB7DEB72C970FB6F894DEBF0FBE60
:10278000CDBF9A8789877C876B878B859C85CC0199
:10279000A0E0B0E0BC01CD010E942306DC01CB012A
:1027A000BC01CD0120E030E040EA50E40E943B0350
:1027B000DC01CB01BC01CD0120E030EC4FE754E45B
:1027C0000E943504DC01CB018D839E83AF83B887E3
:1027D00060E070E080EA90E42D813E814F81588571
:1027E0000E94DD02DC01CB01BC01CD012D813E81C7
:1027F0004F8158850E943504DC01CB017C018D019D
:10280000E985FA8583819481CC01A0E0B0E0BC0128
:10281000CD010E9423069B01AC01C801B7010E94B3
:102820003B03DC01CB0189839A83AB83BC83698141
:102830007A818B819C810E944900DC01CB012C961E
:102840000FB6F894DEBF0FBECDBFCF91DF911F91C1
:102850000F91FF90EF900895DF93CF9300D00F92E8
:10286000CDB7DEB79B838A8381E089838A819B8190
:10287000009779F00E94DF17EA81FB8183819481C0
:10288000009731F4EA81FB8180E197E294838383AE
:10289000198289810F900F900F90CF91DF91089549
:1028A000DF93CF93CDB7DEB727970FB6F894DEBF8F
:1028B0000FBECDBF9D838C837F836E8381E0898330
:1028C0001B821A828C819D810097D9F08E819F8115
:1028D0000097B9F08C819D819E012E5F3F4FB90119
:1028E0000E948B1489838981882359F42A813B8132
:1028F0008C819D81B9010E94B313EE81FF81918388
:102900008083898127960FB6F894DEBF0FBECDBFB6
:10291000CF91DF910895DF93CF9300D000D00F9235
:10292000CDB7DEB79B838A837D836C8381E0898307
:102930008A819B81009779F08C819D81009759F065
:10294000EA81FB8180812C813D81B9010E940119BE
:10295000882309F4198289810F900F900F900F90AE
:102960000F90CF91DF910895DF93CF9300D00F9216
:10297000CDB7DEB769837A838B8389819A81692F8A
:1029800041E00E943B1B0F900F900F90CF91DF9181
:102990000895DF93CF9300D00F92CDB7DEB7698350
:1029A0007A838B838B81813039F489819A81692F75
:1029B00041E00E944A1C09C08B81882331F489813F
:1029C0009A81692F40E00E944A1C0F900F900F904F
:1029D000CF91DF910895DF93CF9300D00F92CDB7C1
:1029E000DEB769837A838B838B81813039F4898167
:1029F0009A81692F40E00E944A1C09C08B8188237C
:102A000031F489819A81692F41E00E944A1C0F901C
:102A10000F900F90CF91DF910895DF93CF9300D067
:102A20000F92CDB7DEB769837A838B8389819A81D0
:102A3000692F0E941E1E0F900F900F90CF91DF9173
:102A40000895EF92FF920F931F93DF93CF93CDB72B
:102A5000DEB72C970FB6F894DEBF0FBECDBF9A87B6
:102A600089877C876B878B859C85CC01A0E0B0E053
:102A7000BC01CD010E942306DC01CB01BC01CD01CC
:102A800020E030E040EA50E40E943B03DC01CB014F
:102A9000BC01CD0120E030EC4FE754E40E94350446
:102AA000DC01CB018D839E83AF83B88760E070E04B
:102AB00080EA90E42D813E814F8158850E94DD029D
:102AC000DC01CB01BC01CD012D813E814F815885B8
:102AD0000E943504DC01CB017C018D01E985FA857A
:102AE00085819681CC01A0E0B0E0BC01CD010E94BF
:102AF00023069B01AC01C801B7010E943B03DC0126
:102B0000CB0189839A83AB83BC8369817A818B8172
:102B10009C810E944900DC01CB012C960FB6F894F1
:102B2000DEBF0FBECDBFCF91DF911F910F91FF9000
:102B3000EF900895EF92FF920F931F93DF93CF933F
:102B400000D000D0CDB7DEB79A8389837C836B83B6
:102B500089819A81CC01A0E0B0E0BC01CD010E9446
:102B600023067B018C018B819C81CC01A0E0B0E02D
:102B7000BC01CD010E9423069B01AC01C801B70135
:102B80000E943504DC01CB01BC01CD010E9449004B
:102B9000DC01CB010F900F900F900F90CF91DF9140
:102BA0001F910F91FF90EF900895DF93CF93CDB7D2
:102BB000DEB72C970FB6F894DEBF0FBECDBF9A8755
:102BC00089877C876B871E821A821B821C821D82EA
:102BD00018861F8289859A85009709F445C08B85E0
:102BE0009C85009709F440C0198225C089859A8583
:102BF0009E01295F3F4FB9010E94B4168E838E81DA
:102C00008130E1F42F81388589859A85B9010E9448
:102C100021159C0140E050E08A819B81AC81BD81FF
:102C2000820F931FA41FB51F8A839B83AC83BD8330
:102C300089818F5F898389818233C0F28E8181305F
:102C4000A1F48A819B81AC81BD8122E330E040E028
:102C500050E0BC01CD010E949626DA01C901EB8546
:102C6000FC859183808301C01E828E812C960FB6D5
:102C7000F894DEBF0FBECDBFCF91DF910895DF93F3
:102C8000CF9300D00F92CDB7DEB79B838A83198292
:102C90008A819B810097E1F00E94DF17EA81FB8126
:102CA00083819481009731F4EA81FB8180E197E28E
:102CB00094838383EA81FB8185819681009731F437
:102CC000EA81FB8180E197E29683858381E08983B5
:102CD00089810F900F900F90CF91DF910895DF932E
:102CE000CF93CDB7DEB729970FB6F894DEBF0FBEEE
:102CF000CDBF9F838E83798768871B821D821C824C
:102D00008E819F81009731F188859985009711F117
:102D10008E819F819E012C5F3F4FB9010E94B416A6
:102D20008B838B818130B1F42C813D818E819F8199
:102D3000B9010E9421159A838983EE81FF81238145
:102D4000348189819A81B9010E949A15E885F985B3
:102D5000918380838B8129960FB6F894DEBF0FBED6
:102D6000CDBFCF91DF910895DF93CF9300D000D0F6
:102D70000F92CDB7DEB79B838A837D836C831982E4
:102D80008A819B81009781F08C819D81009761F001
:102D9000EA81FB8180812C813D81B9010E9401196A
:102DA000882311F481E0898389810F900F900F901F
:102DB0000F900F90CF91DF910895DF93CF9300D0C4
:102DC00000D00F92CDB7DEB79D838C8319821B8212
:102DD0001A828C819D81009791F08C819D819E014A
:102DE0002E5F3F4FB9010E94D515898389818130BB
:102DF00031F48A819B81EC81FD8194838383898175
:102E00000F900F900F900F900F90CF91DF9108953A
:102E1000DF93CF93CDB7DEB70E94DF17CF91DF915D
:102E20000895DF93CF9300D00F92CDB7DEB79B8389
:102E30008A8319828A819B81009741F02A813B8194
:102E400081E0B9010E940119898302C082E089836F
:102E500089810F900F900F90CF91DF910895DF93AC
:102E6000CF9300D000D00F92CDB7DEB79D838C8377
:102E700019821B821A828C819D810097A1F0CE015C
:102E800002960E94111789838981882371F48A81AF
:102E90009B8168EC70E04FEF53E00E948E17EC814D
:102EA000FD81808302C082E0898389810F900F9029
:102EB0000F900F900F90CF91DF910895DF93CF93F4
:102EC00000D000D000D0CDB7DEB78B837D836C837C
:102ED00019821A828C819D810097A1F0CE01029601
:102EE0000E942F1789838981882371F49A811E8219
:102EF0008B81981710F081E08E83EC81FD818E81AB
:102F0000808302C082E08983898126960FB6F89477
:102F1000DEBF0FBECDBFCF91DF910895DF93CF937A
:102F2000CDB7DEB728970FB6F894DEBF0FBECDBF82
:102F30009C838B837E836D8358874F832B813C8159
:102F40008D819E818217930728F084E690E09A8312
:102F500089832BC02B813C818F8198852817390765
:102F600018F01A82198221C02B813C818D819E81AB
:102F7000281B390B84E690E0289FA001299F500D63
:102F8000389F500D11242F8138858D819E81281BFB
:102F9000390BCA01B9010E948226CB019C0184E64B
:102FA00090E0821B930B9A838983898128960FB6C0
:102FB000F894DEBF0FBECDBFCF91DF910895DF93B0
:102FC000CF93CDB7DEB7A7E2B0E0E7E2F0E08081D3
:102FD00080648C93A7E2B0E0E7E2F0E080818F7735
:102FE0008C93A7E2B0E0E7E2F0E080818F7D8C93E4
:102FF000A6E2B0E0E6E2F0E08081887F8C93A6E272
:10300000B0E0E6E2F0E0808187608C93A6E2B0E079
:10301000E6E2F0E080818F7D8C93A6E2B0E0E6E20C
:10302000F0E0808180688C93A6E2B0E0E6E2F0E018
:103030008081877F8C93CF91DF910895DF93CF9329
:10304000CDB7DEB7A6E2B0E0E6E2F0E080818068CE
:103050008C93CF91DF910895DF93CF93CDB7DEB7F7
:10306000A6E2B0E0E6E2F0E080818F778C93CF912A
:10307000DF910895DF93CF93CDB7DEB7A6E2B0E03E
:10308000E6E2F0E0808188608C93CF91DF91089533
:10309000DF93CF93CDB7DEB7A6E2B0E0E6E2F0E093
:1030A0008081877F8C93CF91DF910895DF93CF93B9
:1030B00000D0CDB7DEB78A8381E089838A818823F7
:1030C00031F08A81853019F08A818330E1F4A7E2FA
:1030D000B0E0E7E2F0E080818F738C93A7E2B0E08C
:1030E000E7E2F0E08081282F8A81882F90E0002499
:1030F000969587950794969587950794982F802D98
:10310000822B8C93198289810F900F90CF91DF9140
:103110000895DF93CF9300D0CDB7DEB78A8381E0E7
:1031200089838A81883080F4A6E2B0E0E6E2F0E0AC
:103130008081887F8C93A6E2B0E0E6E2F0E09081A7
:103140008A81892B8C93198289810F900F90CF915E
:10315000DF910895DF93CF9300D0CDB7DEB78A8398
:1031600019828A81882341F4A7E2B0E0E7E2F0E027
:1031700080818F7D8C930DC08A81813041F4A7E2DC
:10318000B0E0E7E2F0E0808180628C9302C081E0F1
:10319000898389810F900F90CF91DF910895DF93FC
:1031A000CF9300D0CDB7DEB78A8319828A81883069
:1031B00041F4A6E2B0E0E6E2F0E080818F7D8C93FE
:1031C0001AC08A818830A8F4A6E2B0E0E6E2F0E016
:1031D000808180628C93A0E5B0E0E0E5F0E0808142
:1031E0008F718C93A0E5B0E0E0E5F0E080818C93F6
:1031F00002C081E0898389810F900F90CF91DF9188
:103200000895DF93CF93CDB7DEB728970FB6F89424
:10321000DEBF0FBECDBF8E8378876F831D8219827C
:103220001A821B821C828F819885009709F472C0D4
:103230008091A801882309F06AC081E08093A801E9
:103240008E81803278F4A7E2B0E0E7E2F0E080819E
:10325000807E8C93A7E2B0E0E7E2F0E090818E817F
:10326000892B8C93A6E2B0E0E6E2F0E080818064F6
:103270008C930BC089819A81AB81BC810196A11D81
:10328000B11D89839A83AB83BC83E6E2F0E0808141
:1032900082958F70882F90E081709070009761F414
:1032A00089819A81AB81BC81803523EC920720E033
:1032B000A20720E0B207F0F289819A81AB81BC813C
:1032C000803523EC920720E0A20720E0B20719F432
:1032D00081E08D8319C0A6E2B0E0E6E2F0E08081F3
:1032E00080618C93E4E2F0E08081282F30E0E5E219
:1032F000F0E08081882F90E0982F8827822B932BF5
:10330000EF81F885918380831092A80105C083E046
:103310008D8302C082E08D838D8128960FB6F8944C
:10332000DEBF0FBECDBFCF91DF910895DF93CF9366
:1033300000D000D000D0CDB7DEB78A837C836B830A
:103340005E834D8319828B819C810097E9F18D8189
:103350009E810097C9F18091A801882391F581E0B1
:103360008093A8011092A9018B819C819093A50163
:103370008093A4018D819E819093A7018093A601E3
:103380008A81803278F4A7E2B0E0E7E2F0E0808161
:10339000807E8C93A7E2B0E0E7E2F0E090818A8142
:1033A000892B8C93A6E2B0E0E6E2F0E080818064B5
:1033B0008C93A6E2B0E0E6E2F0E0808188608C9336
:1033C00005C083E0898302C082E0898389812696D3
:1033D0000FB6F894DEBF0FBECDBFCF91DF91089539
:1033E000DF93CF9300D00F92CDB7DEB79B838A8354
:1033F00019828A819B81009709F479C0EA81FB8157
:1034000080819181009709F472C0EA81FB818581F6
:103410009681009709F46BC0EA81FB8182819381D8
:10342000009709F464C08091A801882309F05CC06A
:1034300081E08093A80181E08093A901EA81FB816A
:10344000828193819093A5018093A401EA81FB81FD
:10345000808191819093AB018093AA01EA81FB81E5
:1034600084818093AC01EA81FB8185819681909370
:10347000A7018093A6011092AD012091AA0130917D
:10348000AB018091AD01882F90E0F901E80FF91FA1
:1034900080818032D0F4A7E2B0E0E7E2F0E0808102
:1034A000807E8C93A7E2B0E0E7E2F0E040812091DB
:1034B000AA013091AB018091AD01882F90E0F90114
:1034C000E80FF91F8081842B8C93A6E2B0E0E6E23E
:1034D000F0E0808180648C93A6E2B0E0E6E2F0E068
:1034E000808188608C9305C083E0898302C082E07C
:1034F000898389810F900F900F90CF91DF9108956C
:103500001F920F920FB60F9211242F933F934F9358
:103510005F936F937F938F939F93AF93BF93EF933B
:10352000FF93DF93CF93CDB7DEB78091A9018823B6
:1035300019F5A091A401B091A501E4E2F0E0808129
:10354000282F30E0E5E2F0E08081882F90E0982F8E
:103550008827822B932B8D939C931092A801E09146
:10356000A601F091A7010995A6E2B0E0E6E2F0E03D
:103570008081877F8C936CC08091A901813009F094
:1035800067C02091A4013091A5018091AD01882FE1
:1035900090E0880F991FD901A80FB91FE4E2F0E06D
:1035A0008081282F30E0E5E2F0E08081882F90E0F4
:1035B000982F8827822B932B11969C938E93809122
:1035C000AD018F5F8093AD019091AD018091AC0111
:1035D000981779F41092A801E091A601F091A70143
:1035E0000995A6E2B0E0E6E2F0E08081877F8C9367
:1035F0002FC02091AA013091AB018091AD01882F9D
:1036000090E0F901E80FF91F80818032D0F4A7E241
:10361000B0E0E7E2F0E08081807E8C93A7E2B0E04A
:10362000E7E2F0E040812091AA013091AB01809166
:10363000AD01882F90E0F901E80FF91F8081842BFC
:103640008C93A6E2B0E0E6E2F0E0808180648C93A7
:10365000CF91DF91FF91EF91BF91AF919F918F91AA
:103660007F916F915F914F913F912F910F900FBE7E
:103670000F901F901895DF93CF93CDB7DEB72897A3
:103680000FB6F894DEBF0FBECDBF8A836B834C8329
:1036900081E089838A81843008F0F1C08B81883091
:1036A00008F0EDC08C81813009F06FC08A81282F2D
:1036B00030E038872F838F8198858130910549F1DB
:1036C0002F813885223031052CF48F819885009721
:1036D00061F0D6C02F8138852230310571F18F819C
:1036E000988583309105E9F1CBC0AAE3B0E0EAE325
:1036F000F0E08081482F8B81282F30E081E090E03E
:10370000022E02C0880F991F0A94E2F7842B8C9333
:10371000B7C0A7E3B0E0E7E3F0E08081482F8B81FA
:10372000282F30E081E090E0022E02C0880F991F20
:103730000A94E2F7842B8C93A3C0A4E3B0E0E4E303
:10374000F0E08081482F8B81282F30E081E090E0ED
:10375000022E02C0880F991F0A94E2F7842B8C93E3
:103760008FC0A1E3B0E0E1E3F0E08081482F8B81DE
:10377000282F30E081E090E0022E02C0880F991FD0
:103780000A94E2F7842B8C937BC08C81882309F008
:1037900074C08A81282F30E03E832D838D819E81E5
:1037A0008130910559F12D813E81223031052CF473
:1037B0008D819E81009769F063C02D813E8122300A
:1037C000310589F18D819E818330910509F440C0D6
:1037D00057C0AAE3B0E0EAE3F0E08081482F8B8194
:1037E000282F30E081E090E0022E02C0880F991F60
:1037F0000A94E2F7809584238C9342C0A7E3B0E05B
:10380000E7E3F0E08081482F8B81282F30E081E0D2
:1038100090E0022E02C0880F991F0A94E2F780956B
:1038200084238C932DC0A4E3B0E0E4E3F0E0808136
:10383000482F8B81282F30E081E090E0022E02C0DB
:10384000880F991F0A94E2F7809584238C9318C0FF
:10385000A1E3B0E0E1E3F0E08081482F8B81282FE5
:1038600030E081E090E0022E02C0880F991F0A9498
:10387000E2F7809584238C9303C0198201C01982DA
:10388000898128960FB6F894DEBF0FBECDBFCF91C9
:10389000DF910895DF93CF93CDB7DEB728970FB6AA
:1038A000F894DEBF0FBECDBF8A836B834C8381E06B
:1038B00089838A81843008F0F1C08B81883008F0D8
:1038C000EDC08C81813009F06FC08A81282F30E0F3
:1038D00038872F838F8198858130910549F12F8119
:1038E0003885223031052CF48F819885009761F05E
:1038F000D6C02F8138852230310571F18F819885AE
:1039000083309105E9F1CBC0ABE3B0E0EBE3F0E04D
:103910008081482F8B81282F30E081E090E0022EBB
:1039200002C0880F991F0A94E2F7842B8C93B7C0CA
:10393000A8E3B0E0E8E3F0E08081482F8B81282FF6
:1039400030E081E090E0022E02C0880F991F0A94B7
:10395000E2F7842B8C93A3C0A5E3B0E0E5E3F0E0AD
:103960008081482F8B81282F30E081E090E0022E6B
:1039700002C0880F991F0A94E2F7842B8C938FC0A2
:10398000A2E3B0E0E2E3F0E08081482F8B81282FB2
:1039900030E081E090E0022E02C0880F991F0A9467
:1039A000E2F7842B8C937BC08C81882309F074C050
:1039B0008A81282F30E03E832D838D819E81813046
:1039C000910559F12D813E81223031052CF48D81F4
:1039D0009E81009769F063C02D813E8122303105C0
:1039E00089F18D819E818330910509F440C057C0D3
:1039F000ABE3B0E0EBE3F0E08081482F8B81282F30
:103A000030E081E090E0022E02C0880F991F0A94F6
:103A1000E2F7809584238C9342C0A8E3B0E0E8E30A
:103A2000F0E08081482F8B81282F30E081E090E00A
:103A3000022E02C0880F991F0A94E2F78095842312
:103A40008C932DC0A5E3B0E0E5E3F0E08081482F42
:103A50008B81282F30E081E090E0022E02C0880F99
:103A6000991F0A94E2F7809584238C9318C0A2E3EF
:103A7000B0E0E2E3F0E08081482F8B81282F30E036
:103A800081E090E0022E02C0880F991F0A94E2F7AD
:103A9000809584238C9303C0198201C01982898187
:103AA00028960FB6F894DEBF0FBECDBFCF91DF9141
:103AB0000895DF93CF93CDB7DEB727970FB6F8946D
:103AC000DEBF0FBECDBF8A836B835D834C8381E0F5
:103AD00089838A81843008F0A6C08B81883008F001
:103AE000A2C08A81282F30E03F832E834E815F81E0
:103AF00041305105C1F18E819F818230910534F4AE
:103B00002E813F812115310571F08EC04E815F817C
:103B10004230510509F447C08E819F818330910561
:103B200009F461C081C0E9E3F0E08081482F50E0F2
:103B30008B81282F30E081E090E002C0880F991F30
:103B40002A95E2F79A01282339238B81882F90E068
:103B5000A90102C0559547958A95E2F7CA01EC8103
:103B6000FD81808361C0E6E3F0E08081482F50E072
:103B70008B81282F30E081E090E002C0880F991FF0
:103B80002A95E2F79A01282339238B81882F90E028
:103B9000A90102C0559547958A95E2F7CA01EC81C3
:103BA000FD81808341C0E3E3F0E08081482F50E055
:103BB0008B81282F30E081E090E002C0880F991FB0
:103BC0002A95E2F79A01282339238B81882F90E0E8
:103BD000A90102C0559547958A95E2F7CA01EC8183
:103BE000FD81808321C0E0E3F0E08081482F50E038
:103BF0008B81282F30E081E090E002C0880F991F70
:103C00002A95E2F79A01282339238B81882F90E0A7
:103C1000A90102C0559547958A95E2F7CA01EC8142
:103C2000FD81808301C01982898127960FB6F8949F
:103C3000DEBF0FBECDBFCF91DF910895DF93CF934D
:103C400000D000D00F92CDB7DEB78A836B8381E0BE
:103C500089838A81843008F073C08B81883008F0B2
:103C60006FC08A81282F30E03D832C838C819D8119
:103C70008130910549F12C813D81223031052CF4B0
:103C80008C819D81009761F05CC02C813D81223048
:103C9000310571F18C819D8183309105E9F151C02D
:103CA000ABE3B0E0EBE3F0E08081482F8B81282F7D
:103CB00030E081E090E0022E02C0880F991F0A9444
:103CC000E2F784278C933DC0A8E3B0E0E8E3F0E09E
:103CD0008081482F8B81282F30E081E090E0022EF8
:103CE00002C0880F991F0A94E2F784278C9329C099
:103CF000A5E3B0E0E5E3F0E08081482F8B81282F39
:103D000030E081E090E0022E02C0880F991F0A94F3
:103D1000E2F784278C9315C0A2E3B0E0E2E3F0E081
:103D20008081482F8B81282F30E081E090E0022EA7
:103D300002C0880F991F0A94E2F784278C9301C070
:103D4000198289810F900F900F900F900F90CF9153
:103D5000DF910895DF93CF9300D000D00F92CDB7BD
:103D6000DEB78A836B8381E089838A818430A8F5FA
:103D70008A81282F30E03D832C838C819D81813086
:103D80009105D1F02C813D81223031052CF48C81BC
:103D90009D81009761F01FC02C813D81223031054B
:103DA00081F08C819D818330910581F014C0EAE31C
:103DB000F0E08B81808312C0E7E3F0E08B818083A9
:103DC0000DC0E4E3F0E08B81808308C0E1E3F0E024
:103DD0008B81808303C0198201C0198289810F9071
:103DE0000F900F900F900F90CF91DF910895DF9378
:103DF000CF9300D000D00F92CDB7DEB78A836B830C
:103E000081E089838A81843098F58A81282F30E087
:103E10003D832C838C819D8181309105D1F02C8153
:103E20003D81223031052CF48C819D81009761F019
:103E300020C02C813D812230310581F08C819D8113
:103E40008330910581F015C0EBE3F0E08B81808336
:103E500010C0E8E3F0E08B8180830BC0E5E3F0E085
:103E60008B81808306C0E2E3F0E08B81808301C018
:103E7000198289810F900F900F900F900F90CF9122
:103E8000DF910895DF93CF9300D000D000D0CDB75D
:103E9000DEB78A837C836B8381E089838A81843067
:103EA000E8F58A81282F30E03E832D838D819E8125
:103EB00081309105E1F02D813E81223031052CF4D5
:103EC0008D819E81009761F027C02D813E81223037
:103ED0003105A1F08D819E8183309105B1F01CC028
:103EE000E9E3F0E08081EB81FC81808318C0E9E3A5
:103EF000F0E08081EB81FC81808311C0E9E3F0E098
:103F00008081EB81FC8180830AC0E9E3F0E080815D
:103F1000EB81FC81808303C0198201C019828981F1
:103F200026960FB6F894DEBF0FBECDBFCF91DF91BE
:103F30000895DF93CF9300D000D0CDB7DEB78A834A
:103F400081E089838A81843008F03FC08A81282FEC
:103F500030E03C832B838B819C8181309105E9F09B
:103F60002B813C81223031052CF48B819C81009780
:103F700061F02CC02B813C8122303105B1F08B8166
:103F80009C8183309105C9F021C0ABE3B0E0EBE345
:103F9000F0E0808180958C9319C0A8E3B0E0E8E35D
:103FA000F0E0808180958C9311C0A5E3B0E0E5E35B
:103FB000F0E0808180958C9309C0A2E3B0E0E2E359
:103FC000F0E0808180958C9301C0198289810F90E7
:103FD0000F900F900F90CF91DF910895DF93CF93C3
:103FE00000D000D000D0CDB7DEB78A836B834C837E
:103FF00081E089838A81843008F03EC18B818830DA
:1040000008F03AC18A81282F30E03E832D838D81CC
:104010009E818130910509F45DC02D813E81223061
:1040200031052CF48D819E81009771F026C12D8180
:104030003E812230310509F493C08D819E81833009
:10404000910509F4D3C019C18C81813071F5A0E5C7
:10405000B0E0E0E5F0E080818B7F8C93AAE3B0E0F4
:10406000EAE3F0E08081482F8B81282F30E081E067
:1040700090E002C0880F991F2A95E2F7809584236B
:104080008C93ABE3B0E0EBE3F0E08081482F8B81D1
:10409000282F30E081E090E0022E02C0880F991FA7
:1040A0000A94E2F7842B8C93E8C0ABE3B0E0EBE337
:1040B000F0E08081482F8B81282F30E081E090E074
:1040C000022E02C0880F991F0A94E2F7809584237C
:1040D0008C93D3C08C81813071F5A0E5B0E0E0E530
:1040E000F0E080818B7F8C93A7E3B0E0E7E3F0E022
:1040F0008081482F8B81282F30E081E090E002C042
:10410000880F991F2A95E2F7809584238C93A8E362
:10411000B0E0E8E3F0E08081482F8B81282F30E089
:1041200081E090E0022E02C0880F991F0A94E2F706
:10413000842B8C93A2C0A8E3B0E0E8E3F0E0808198
:10414000482F8B81282F30E081E090E0022E02C0C2
:10415000880F991F0A94E2F7809584238C938DC071
:104160008C81813071F5A0E5B0E0E0E5F0E0808180
:104170008B7F8C93A4E3B0E0E4E3F0E08081482FF0
:104180008B81282F30E081E090E002C0880F991FDA
:104190002A95E2F7809584238C93A5E3B0E0E5E3CC
:1041A000F0E08081482F8B81282F30E081E090E083
:1041B000022E02C0880F991F0A94E2F7842B8C9379
:1041C0005CC0A5E3B0E0E5E3F0E08081482F8B819F
:1041D000282F30E081E090E0022E02C0880F991F66
:1041E0000A94E2F7809584238C9347C08C818130B8
:1041F00071F5A0E5B0E0E0E5F0E080818B7F8C9385
:10420000A1E3B0E0E1E3F0E08081482F8B81282F2B
:1042100030E081E090E002C0880F991F2A95E2F714
:10422000809584238C93A2E3B0E0E2E3F0E0808108
:10423000482F8B81282F30E081E090E0022E02C0D1
:10424000880F991F0A94E2F7842B8C9316C0A2E37F
:10425000B0E0E2E3F0E08081482F8B81282F30E04E
:1042600081E090E0022E02C0880F991F0A94E2F7C5
:10427000809584238C9301C01982898126960FB67C
:10428000F894DEBF0FBECDBFCF91DF910895DF93CD
:10429000CF9300D000D00F92CDB7DEB78A836B8367
:1042A00081E089838A81843008F062C08B818F70BD
:1042B0008B838A81282F30E03D832C838C819D81E4
:1042C0008130910529F12C813D81223031052CF47A
:1042D0008C819D81009761F04CC02C813D81223002
:1042E000310531F18C819D818330910589F141C087
:1042F000ABE3B0E0EBE3F0E08081807F8C93ABE355
:10430000B0E0EBE3F0E090818B81892B8C9331C09E
:10431000A8E3B0E0E8E3F0E08081807F8C93A8E33D
:10432000B0E0E8E3F0E090818B81892B8C9321C091
:10433000A5E3B0E0E5E3F0E08081807F8C93A5E326
:10434000B0E0E5E3F0E090818B81892B8C9311C084
:10435000A2E3B0E0E2E3F0E08081807F8C93A2E30F
:10436000B0E0E2E3F0E090818B81892B8C9301C077
:10437000198289810F900F900F900F900F90CF911D
:10438000DF910895DF93CF9300D000D00F92CDB787
:10439000DEB78A836B8381E089838A81843008F069
:1043A00063C08B818295807F8B838A81282F30E048
:1043B0003D832C838C819D818130910529F12C8155
:1043C0003D81223031052CF48C819D81009761F074
:1043D0004CC02C813D812230310531F18C819D8191
:1043E0008330910589F141C0ABE3B0E0EBE3F0E04D
:1043F00080818F708C93ABE3B0E0EBE3F0E09081D1
:104400008B81892B8C9331C0A8E3B0E0E8E3F0E026
:1044100080818F708C93A8E3B0E0E8E3F0E09081B6
:104420008B81892B8C9321C0A5E3B0E0E5E3F0E01C
:1044300080818F708C93A5E3B0E0E5E3F0E090819C
:104440008B81892B8C9311C0A2E3B0E0E2E3F0E012
:1044500080818F708C93A2E3B0E0E2E3F0E0908182
:104460008B81892B8C9301C0198289810F900F90C9
:104470000F900F900F90CF91DF910895DF93CF931E
:1044800000D000D00F92CDB7DEB78A836B8381E076
:1044900089838A81843008F062C08B818F708B831E
:1044A0008A81282F30E03D832C838C819D8181304F
:1044B000910529F12C813D81223031052CF48C812C
:1044C0009D81009761F04CC02C813D8122303105E7
:1044D00031F18C819D818330910589F141C0AAE33E
:1044E000B0E0EAE3F0E08081807F8C93AAE3B0E063
:1044F000EAE3F0E090818B81892B8C9331C0A7E3B4
:10450000B0E0E7E3F0E08081807F8C93A7E3B0E048
:10451000E7E3F0E090818B81892B8C9321C0A4E3A9
:10452000B0E0E4E3F0E08081807F8C93A4E3B0E02E
:10453000E4E3F0E090818B81892B8C9311C0A1E39F
:10454000B0E0E1E3F0E08081807F8C93A1E3B0E014
:10455000E1E3F0E090818B81892B8C9301C019827B
:1045600089810F900F900F900F900F90CF91DF9156
:104570000895DF93CF9300D000D00F92CDB7DEB770
:104580008A836B8381E089838A81843008F063C0E9
:104590008B818295807F8B838A81282F30E03D83B9
:1045A0002C838C819D818130910529F12C813D8165
:1045B000223031052CF48C819D81009761F04CC034
:1045C0002C813D812230310531F18C819D818330F8
:1045D000910589F141C0AAE3B0E0EAE3F0E080810F
:1045E0008F708C93AAE3B0E0EAE3F0E090818B81D6
:1045F000892B8C9331C0A7E3B0E0E7E3F0E0808142
:104600008F708C93A7E3B0E0E7E3F0E090818B81BB
:10461000892B8C9321C0A4E3B0E0E4E3F0E0808137
:104620008F708C93A4E3B0E0E4E3F0E090818B81A1
:10463000892B8C9311C0A1E3B0E0E1E3F0E080812D
:104640008F708C93A1E3B0E0E1E3F0E090818B8187
:10465000892B8C9301C0198289810F900F900F9044
:104660000F900F90CF91DF910895DF93CF9300D0FB
:1046700000D000D0CDB7DEB79B838A837D836C8367
:104680004E83198233C0EEE3F0E08981282F30E0B9
:104690008A819B81820F931F91838083ADE3B0E079
:1046A0008981282F30E08C819D81FC01E20FF31F6E
:1046B00080818C93ACE3B0E0ECE3F0E08081846037
:1046C0008C93ACE3B0E0ECE3F0E0808182608C930B
:1046D000ECE3F0E08081882F90E0827090709595F7
:1046E00087950097A9F789818F5F898399818E814A
:1046F000981748F226960FB6F894DEBF0FBECDBFCE
:10470000CF91DF910895DF93CF9300D000D000D0F8
:10471000CDB7DEB79B838A837D836C834E831982FA
:1047200021C0EEE3F0E08981282F30E08A819B816F
:10473000820F931F91838083ACE3B0E0ECE3F0E061
:10474000808181608C938981282F30E08C819D81CC
:10475000DC01A20FB31FEDE3F0E080818C9389812F
:104760008F5F898399818E819817D8F226960FB62C
:10477000F894DEBF0FBECDBFCF91DF910895DF93D8
:10478000CF930F92CDB7DEB78983E0E2F0E082E00D
:104790008083E1E2F0E010828981882329F0E2E25F
:1047A000F0E08981880F8083A6E5B0E0E6E5F0E0DF
:1047B000808180648C93A6E5B0E0E6E5F0E080813E
:1047C00084608C930F90CF91DF910895DF93CF9306
:1047D0000F92CDB7DEB78983E2E2F0E08981880FDE
:1047E0008083A6E5B0E0E6E5F0E0808180648C930C
:1047F000A6E5B0E0E6E5F0E0808184608C930F9060
:10480000CF91DF910895DF93CF930F92CDB7DEB7AD
:104810001982A6E5B0E0E6E5F0E0808180628C9345
:10482000A6E5B0E0E6E5F0E0808180688C93E6E5FF
:10483000F0E080818823DCF7E1E2F0E08081882FDE
:1048400090E0887F90708830910511F081E0898335
:1048500089810F90CF91DF910895DF93CF930F92CD
:10486000CDB7DEB71982A6E5B0E0E6E5F0E08081DD
:1048700080628C93A6E5B0E0E6E5F0E08081806898
:104880008C93E6E5F0E080818823DCF7E1E2F0E05C
:104890008081882F90E0887F90708031910511F0A1
:1048A00082E0898389810F90CF91DF910895DF9312
:1048B000CF9300D0CDB7DEB78A831982E3E2F0E070
:1048C0008A81880F8083A3E2B0E0E3E2F0E0808198
:1048D0008E7F8C93A6E5B0E0E6E5F0E080818F7DE9
:1048E0008C93A6E5B0E0E6E5F0E0808180688C93EB
:1048F000E6E5F0E080818823DCF7E1E2F0E080810A
:10490000882F90E0887F90708831910511F083E0C6
:10491000898389810F900F90CF91DF910895DF9364
:10492000CF9300D0CDB7DEB78A831982E3E2F0E0FF
:104930008A81880F8083A3E2B0E0E3E2F0E0808127
:1049400081608C93A6E5B0E0E6E5F0E080818F7DA4
:104950008C93A6E5B0E0E6E5F0E0808180688C937A
:10496000E6E5F0E080818823DCF7E1E2F0E0808199
:10497000882F90E0887F90708034910511F084E05A
:10498000898389810F900F90CF91DF910895DF93F4
:10499000CF9300D0CDB7DEB78A831982E3E2F0E08F
:1049A0008A818083A6E5B0E0E6E5F0E0808180685A
:1049B0008C93E6E5F0E080818823DCF7E1E2F0E02B
:1049C0008081882F90E0887F90708832910511F067
:1049D00085E0898389810F900F90CF91DF910895B1
:1049E000DF93CF9300D00F92CDB7DEB79B838A833E
:1049F0001982A6E5B0E0E6E5F0E0808180688C935E
:104A0000E6E5F0E080818823DCF7E1E2F0E08081F8
:104A1000882F90E0887F90708035910519F086E0AE
:104A2000898306C0E3E2F0E08081EA81FB81808334
:104A300089810F900F900F90CF91DF910895DF93B0
:104A4000CF9300D0CDB7DEB78A831982E3E2F0E0DE
:104A50008A818083A6E5B0E0E6E5F0E080818068A9
:104A60008C93E6E5F0E080818823DCF7E1E2F0E07A
:104A70008081882F90E0887F9070883B910511F0AD
:104A800087E0898389810F900F90CF91DF910895FE
:104A9000DF93CF9300D00F92CDB7DEB79B838A838D
:104AA0001982A6E5B0E0E6E5F0E0808180688C93AD
:104AB000E6E5F0E080818823DCF7E1E2F0E0808148
:104AC000882F90E0887F90708038910519F088E0F9
:104AD000898306C0E3E2F0E08081EA81FB81808384
:104AE00089810F900F900F90CF91DF910895DF9300
:104AF000CF93CDB7DEB7A6E5B0E0E6E5F0E0808184
:104B000080618C93A6E5B0E0E6E5F0E08081806806
:104B10008C93CF91DF910895DF93CF93CDB7DEB71C
:104B2000AC970FB6F894DEBF0FBECDBF0E947D09D3
:104B3000CE010F9699A788A7EDE9F1E0FBA7EAA7B8
:104B4000F7E0FCA7EAA5FBA500808AA59BA5019636
:104B50009BA78AA7E8A5F9A5008288A599A5019633
:104B600099A788A79CA591509CA7ECA5EE2351F787
:104B7000CE010F960E943F16CE010F960E94DD16C1
:104B80001F8A1E8ACE010F969E012A5E3F4FB901F1
:104B90000E946F162E893F8900D000D000D0EDB75B
:104BA000FEB73196CE0148969183808380E690E0EF
:104BB00093838283358324830E940A278DB79EB70F
:104BC00006960FB6F8949EBF0FBE8DBF0E94310FA0
:104BD00081E061E00E94B90FCE0148960E94070E65
:104BE00080E090E0AAE7B4E48B879C87AD87BE871E
:104BF0006B857C858D859E8520E030E04AEF54E40E
:104C00000E943B03DC01CB018F839887A987BA8779
:104C10006F81788589859A8520E030E040E85FE300
:104C20000E94410588232CF481E090E09E838D83CF
:104C30003FC06F81788589859A8520E03FEF4FE7F7
:104C400057E40E94E10418164CF56B857C858D8530
:104C50009E8520E030E040E251E40E943B03DC010D
:104C6000CB01BC01CD010E944900DC01CB019E8338
:104C70008D830FC088EC90E09C838B838B819C811B
:104C80000197F1F79C838B838D819E8101979E8391
:104C90008D838D819E81009769F772CF6F817885B2
:104CA00089859A850E944900DC01CB019E838D8312
:104CB0008D819E819A83898389819A810197F1F7F9
:104CC0009A8389835DCF629FD001739FF001829F99
:104CD000E00DF11D649FE00DF11D929FF00D839F8B
:104CE000F00D749FF00D659FF00D9927729FB00D28
:104CF000E11DF91F639FB00DE11DF91FBD01CF013B
:104D000011240895AA1BBB1B51E107C0AA1FBB1F9A
:104D1000A617B70710F0A61BB70B881F991F5A9547
:104D2000A9F780959095BC01CD010895A1E21A2EB6
:104D3000AA1BBB1BFD010DC0AA1FBB1FEE1FFF1F3F
:104D4000A217B307E407F50720F0A21BB30BE40B8F
:104D5000F50B661F771F881F991F1A9469F76095D6
:104D60007095809590959B01AC01BD01CF01089590
:104D700097FB092E05260ED057FD04D0D7DF0AD0A9
:104D8000001C38F450954095309521953F4F4F4F7A
:104D90005F4F0895F6F790958095709561957F4FD8
:104DA0008F4F9F4F08952F923F924F925F926F9235
:104DB0007F928F929F92AF92BF92CF92DF92EF92AB
:104DC000FF920F931F93CF93DF93CDB7DEB7CA1B2C
:104DD000DB0B0FB6F894DEBF0FBECDBF09942A8857
:104DE000398848885F846E847D848C849B84AA84FF
:104DF000B984C884DF80EE80FD800C811B81AA818C
:104E0000B981CE0FD11D0FB6F894DEBF0FBECDBF56
:104E1000ED010895AEE0B0E0E0E1F7E20C94E126A8
:104E20000D891E8986E08C831A8309838FEF9FE7A3
:104E30009E838D839E01275E3F4FCE0101966F8931
:104E4000788DA9010E942E272F813885020F131F0C
:104E5000F80110822E96E4E00C94FD26ABE0B0E061
:104E6000E4E3F7E20C94D3263C012B015A01FC0148
:104E700017821682838181FD03C06FEF7FEFC6C169
:104E80009AE0892E1E010894211C311CF301238114
:104E9000F20123FD859123FF81912F01882309F4DD
:104EA000B2C1853239F423FD859123FF81912F0111
:104EB000853229F490E0B3010E942129E7CF982F91
:104EC000FF24EE249924FFE1FF15D0F09B3269F016
:104ED0009C3228F4903259F0933291F40EC09D32F6
:104EE00049F0903369F441E024C052E0F52A84E0AF
:104EF000F82A28C098E0F92A25C0E0E1FE2A22C05D
:104F0000F7FC29C0892F80538A3070F4F6FE05C063
:104F1000989C902C1124980E15C0E89CE02C11242C
:104F2000E80EF0E2FF2A0EC09E3229F4F6FC6BC1B7
:104F300040E4F42A07C09C3619F450E8F52A02C070
:104F4000983649F4F20123FD959123FF91912F01A9
:104F5000992309F0B8CF892F8554833018F08052F7
:104F6000833038F444E050E0A40EB51E5FE359836B
:104F70000FC0933631F0933779F0933509F056C06E
:104F800020C0F5018081898342E050E0A40EB51E67
:104F9000610101E010E012C0F501C080D180F6FC93
:104FA00003C06FEF7FEF02C0692D70E042E050E078
:104FB000A40EB51EC6010E9416298C015FE7F522DA
:104FC00014C0F501C080D180F6FC03C06FEF7FEF05
:104FD00002C0692D70E042E050E0A40EB51EC6018B
:104FE0000E940B298C0150E8F52AF3FE07C01AC075
:104FF00080E290E0B3010E942129EA948E2D90E096
:1050000008171907A8F30EC0F601F7FC8591F7FE03
:1050100081916F0190E0B3010E942129E110EA948F
:10502000015010400115110579F7EAC0943611F0CE
:10503000993669F5F7FE08C0F5012081318142817A
:10504000538184E090E00AC0F501808191819C0148
:10505000442737FD4095542F82E090E0A80EB91EFA
:105060009FE6F92257FF09C050954095309521954C
:105070003F4F4F4F5F4FE0E8FE2ACA01B901A1013F
:105080002AE030E00E944D29D82ED21840C0953732
:1050900029F41F2D1F7E2AE030E01DC01F2D197F2F
:1050A0009F3661F0903720F4983509F0ACC00FC0FE
:1050B000903739F0983709F0A6C004C028E030E0F6
:1050C0000AC0106114FD146020E130E004C014FD3A
:1050D000166020E132E017FF08C0F50160817181A0
:1050E0008281938144E050E008C0F5018081918184
:1050F000BC0180E090E042E050E0A40EB51EA101AA
:105100000E944D29D82ED2188FE7F82EF122F6FEF4
:105110000BC05EEFF522D91438F4F4FE07C0F2FCA0
:1051200005C08FEEF82202C01D2D01C0192DF4FE1E
:105130000DC0FE01ED0DF11D8081803319F499EE53
:10514000F92208C01F5FF2FE05C003C08F2D8678CC
:1051500009F01F5F0F2DF3FC14C0F0FE0FC01E15E9
:1051600010F09D2C0BC09D2C9E0C911A1E2D06C07C
:1051700080E290E0B3010E9421291F5F1E15C0F359
:1051800004C01E1510F4E11A01C0EE2404FF0FC084
:1051900080E390E0B3010E94212902FF1DC001FDC0
:1051A00003C088E790E00EC088E590E00BC0802F38
:1051B000867891F001FF02C08BE201C080E2F7FC2B
:1051C0008DE290E0B3010E94212906C080E390E0C7
:1051D000B3010E9421299A94D914C0F3DA94F10101
:1051E000ED0DF11D808190E0B3010E942129DD20A9
:1051F000A9F706C080E290E0B3010E942129EA9459
:10520000EE20C1F743CEF30166817781CB012B9667
:10521000E2E10C94EF26FC01059061507040011012
:10522000D8F7809590958E0F9F1F0895FC016150CF
:10523000704001900110D8F7809590958E0F9F1FB8
:1052400008950F931F93CF93DF938C01EB018B8114
:1052500081FF1BC082FF0DC02E813F818C819D810B
:105260002817390764F4E881F9810193F983E88309
:1052700006C0E885F985802F0995892B31F48E8148
:105280009F8101969F838E8302C00FEF1FEFC8019D
:10529000DF91CF911F910F910895FA01AA2728302D
:1052A00051F1203181F1E8946F936E7F6E5F7F4FF3
:1052B0008F4F9F4FAF4FB1E03ED0B4E03CD0670F6F
:1052C000781F891F9A1FA11D680F791F8A1F911DC2
:1052D000A11D6A0F711D811D911DA11D20D009F412
:1052E00068943F912AE0269F11243019305D319354
:1052F000DEF6CF010895462F4770405D4193B3E03D
:105300000FD0C9F7F6CF462F4F70405D4A3318F0E3
:10531000495D31FD4052419302D0A9F7EACFB4E094
:10532000A6959795879577956795BA95C9F700974C
:105330006105710508959B01AC010A2E06945795ED
:10534000479537952795BA95C9F7620F731F841F44
:0A535000951FA01D0895F894FFCFEB
:10535A004761733A202534752070706D0000000093
:10536A000000000000000102020303030304040416
:10537A0004040404040505050505050505050505D8
:10538A0005050505050606060606060606060606B8
:10539A0006060606060606060606060606060606A3
:1053AA000606060606070707070707070707070788
:1053BA000707070707070707070707070707070773
:1053CA000707070707070707070707070707070763
:1053DA000707070707070707070707070707070753
:1053EA000707070707080808080808080808080838
:1053FA000808080808080808080808080808080823
:10540A000808080808080808080808080808080812
:10541A000808080808080808080808080808080802
:10542A0008080808080808080808080808080808F2
:10543A0008080808080808080808080808080808E2
:10544A0008080808080808080808080808080808D2
:10545A0008080808080808080808080808080808C2
:10546A00080808080807040F04040404000A0A0AC2
:10547A000A040A0E000000000007040F003132334C
:10548A004134353642373839432A3023440305003C
:04549A0010271027A0
:00000001FF
