:100000000C942A000C9447000C9447000C94470071
:100010000C94CB1B0C94A21B0C94791B0C94501BBE
:100020000C94271B0C94FE1A0C94D51A0C94AC1A41
:100030000C9447000C94E71C0C9447000C94261D6C
:100040000C9468130C9447000C9447000C944700E0
:100050000C94470011241FBECFE5D8E0DEBFCDBF12
:1000600012E0A0E6B0E0EEEFFCE402C005900D92D5
:10007000AA3EB107D9F713E0AAEEB2E001C01D9283
:10008000A932B107E1F70E94431E0C947D260C941F
:100090000000EF92FF920F93DF93CF93CDB7DEB7BF
:1000A00060970FB6F894DEBF0FBECDBFA82F002318
:1000B00009F461C07E010894E11CF11C88E0F7019D
:1000C00011928A95E9F729833A834B835C836D8388
:1000D0007E83AF83988780E2801BE82FFF27E7FDB0
:1000E000F09549815A816B817C81181684F01986BC
:1000F0001A861B861C86882799278E1B9F0B04C097
:10010000440F551F661F771F8A95D2F728C0202FEE
:10011000332727FD3095DB01CA01022E04C0880F6A
:10012000991FAA1FBB1F0A94D2F789879A87AB87AA
:10013000BC8704C07695679557954795EA95D2F7A1
:100140008D819E81AF81B88504C0880F991FAA1F39
:10015000BB1F2A95D2F7482B592B6A2B7B2B4D8737
:100160005E876F87788B29853A854B855C856D85A1
:100170007E85AF8598898A2F60960FB6F894DEBF8A
:100180000FBECDBFCF91DF910F91FF90EF900895FB
:10019000EF92FF920F931F937B018C0120E030E0E0
:1001A00040E05FE40E947D1088238CF0C801B70115
:1001B00020E030E040E05FE40E94250F0E94AD1097
:1001C0009B01AC01205030404040504806C0C8015F
:1001D000B7010E94AD109B01AC01B901CA011F918A
:1001E0000F91FF90EF900895AEE5B0E0EAEFF0E0F8
:1001F0000C944626A8E04E010894811C911CF40141
:100200006A2E11926A94E9F729833A834B835C83BF
:100210006D837E838F839887CE010996FC011192AE
:10022000AA95E9F7A986BA86CB86DC86ED86FE8696
:100230000F87188B29843A844B845C84ED84FE8478
:100240000F85188969807A808B809C806DA67EA638
:100250008FA698AA6D807E808F809884E114F10427
:100260000105110509F0B3C36214730484049504F5
:1002700008F03DC100E0201600E0300601E0400635
:1002800000E0500688F41FEF2116310441045104A8
:1002900039F030F048E0E42EF12C012D112D18C07A
:1002A000EE24FF24870114C020E0221620E032064D
:1002B00020E0420621E0520630F038E1E32EF12C36
:1002C000012D112D05C020E1E22EF12C012D112D63
:1002D000D201C1010E2C04C0B695A79597958795BC
:1002E0000A94D2F782579E4FDC012C9180E290E075
:1002F000A0E0B0E08E199F09A00BB10B7C018D012D
:10030000E21AF10801091109E114F10401051105CE
:10031000A1F10E2C04C0220C331C441C551C0A9461
:10032000D2F7A40193010E2C04C0220F331F441FE7
:10033000551F0A94D2F780E290E08E199F096DA4B0
:100340007EA48FA498A804C0969487947794679409
:100350008A95D2F7622A732A842A952AADA4BEA46C
:10036000CFA4D8A804C0AA0CBB1CCC1CDD1CEA94EA
:10037000D2F7ADA6BEA6CFA6D8AA6201EE24FF246E
:10038000CDAADEAAEFAAF8AE9201810120703070EA
:1003900009AF1AAF2BAF3CAFC401B301A70196015F
:1003A0000E9424267B018C01C401B3012DA93EA922
:1003B0004FA958AD0E942426C901DA013C014D0124
:1003C000C401B30129AD3AAD4BAD5CAD0E94052629
:1003D0009B01AC018701FF24EE24ADA4BEA4CFA4F1
:1003E000D8A8C601AA27BB2757016801A82AB92A9D
:1003F000CA2ADB2AA216B306C406D506E0F408947E
:100400006108710881089108A20CB31CC41CD51C9A
:10041000A214B304C404D50470F0A216B306C40633
:10042000D50648F408946108710881089108A20C67
:10043000B31CC41CD51CA21AB30AC40AD50AC6012F
:10044000B5012DA93EA94FA958AD0E9424267B01D4
:100450008C01C601B5012DA93EA94FA958AD0E9436
:100460002426C901DA015C016D01C601B50129AD7F
:100470003AAD4BAD5CAD0E9405269B01AC018701F6
:10048000FF24EE248DA59EA5AFA5B8A9A070B070DD
:10049000E82AF92A0A2B1B2BE216F3060407150794
:1004A000C0F40894A108B108C108D108E20CF31CFB
:1004B000041D151DE214F3040405150550F0E216A1
:1004C000F3060407150728F40894A108B108C10829
:1004D000D108D3019927882786017501E82AF92ACE
:1004E0000A2B1B2BE9AAFAAA0BAB1CABCFC4211415
:1004F00031044104510471F461E070E080E090E067
:1005000020E030E040E050E00E942426C901DA01FA
:100510001C012D0100E0201600E0300601E040063D
:1005200000E0500688F41FEF211631044104510405
:1005300031F028F048E050E060E070E017C040E0A3
:1005400050E060E070E012C020E0221620E03206A9
:1005500020E0420621E0520628F048E150E060E049
:1005600070E004C040E150E060E070E0D201C10101
:10057000042E04C0B695A795979587950A94D2F74F
:1005800082579E4FDC012C91E0E2EE2EF12C012DE2
:10059000112DD801C701841B950BA60BB70B821B2D
:1005A0009109A109B1090097A105B10561F46401A0
:1005B0005301A218B308C408D50831E0632E712C8A
:1005C000812C912C1EC16F968FAF6F97082E04C09F
:1005D000220C331C441C551C0A94D2F7EE2DE81B48
:1005E000640153010E2E04C0D694C794B794A79407
:1005F0000A94D2F7A40193016F960FAC6F9704C0D1
:10060000220F331F441F551F0A94D2F76DA47EA4F6
:100610008FA498A80E2E04C096948794779467941C
:100620000A94D2F784017301E22AF32A042B152BD2
:10063000E9A6FAA60BA71CA73201882499249201E7
:1006400081012070307021960CAF1DAF2EAF3FAFEF
:100650002197C601B501A40193010E9424267B01C4
:100660008C01C601B501A40193010E942426C90191
:10067000DA0125968CAF9DAFAEAFBFAF2597BC0119
:10068000CD0121962CAD3DAD4EAD5FAD21970E94C1
:1006900005269B01AC018701FF24EE24A9A4BAA47E
:1006A000CBA4DCA4C601AA27BB275C016D01AE2840
:1006B000BF28C02AD12AA216B306C406D50660F503
:1006C00025966CAD7DAD8EAD9FAD25976150704088
:1006D0008040904025966CAF7DAF8EAF9FAF259741
:1006E000A20CB31CC41CD51CA214B304C404D504AE
:1006F00098F0A216B306C406D50670F46150704097
:100700008040904025966CAF7DAF8EAF9FAF259710
:10071000A20CB31CC41CD51CA21AB30AC40AD50A65
:10072000C601B501A40193010E9424267B018C011E
:10073000C601B501A40193010E942426C901DA0172
:100740003C014D01C401B30121962CAD3DAD4EAD30
:100750005FAD21970E9405269B01AC018701FF2414
:10076000EE2489A59AA5ABA5BCA5A070B0705701D1
:100770006801A82AB92ACA2ADB2AA216B306C40627
:10078000D506E0F408946108710881089108A20C6C
:10079000B31CC41CD51CA214B304C404D50470F04B
:1007A000A216B306C406D50648F408946108710879
:1007B00081089108A20CB31CC41CD51C8DA59EA554
:1007C000AFA5B8A96F960FAC6F9704C0880F991F9B
:1007D000AA1FBB1F0A94D2F78DA79EA7AFA7B8ABDD
:1007E000A21AB30AC40AD50A2596ECACFDAC0EAD2C
:1007F0001FAD2597D70199278827682A792A8A2A41
:100800009B2A82012227332729960CAF1DAF2EAFDA
:100810003FAF2997A2019101407050702D962CAFE7
:100820003DAF4EAF5FAF2D97C601B50129962CADF8
:100830003DAD4EAD5FAD29970E9424267B018C0112
:10084000C601B50129962CAD3DAD4EAD5FAD2997E2
:100850000E942426C901DA0161968CAF9DAFAEAF2C
:10086000BFAF6197BC01CD012D962CAD3DAD4EAD16
:100870005FAD2D970E9405269B01AC018701FF24E7
:10088000EE24ADA4BEA4CFA4D8A8C601AA27BB2736
:1008900057016801A82AB92ACA2ADB2AA216B30678
:1008A000C406D50660F561966CAD7DAD8EAD9FAD8D
:1008B0006197615070408040904061966CAF7DAF11
:1008C0008EAF9FAF6197A20CB31CC41CD51CA214A1
:1008D000B304C404D50498F0A216B306C406D50622
:1008E00070F4615070408040904061966CAF7DAF75
:1008F0008EAF9FAF6197A20CB31CC41CD51CA21A6B
:10090000B30AC40AD50AC601B50129962CAD3DAD7E
:100910004EAD5FAD29970E9424267B018C01C60154
:10092000B50129962CAD3DAD4EAD5FAD29970E9426
:100930002426C901DA015C016D01C601B5012D96BD
:100940002CAD3DAD4EAD5FAD2D970E9405269B01B0
:10095000AC018701FF24EE248DA59EA5AFA5B8A903
:10096000A070B070E82AF92A0A2B1B2BE216F306B6
:1009700004071507C0F40894A108B108C108D108FC
:10098000E20CF31C041D151DE214F3040405150507
:1009900050F0E216F3060407150728F40894A1089E
:1009A000B108C108D1086196ECACFDAC0EAD1FAD2D
:1009B0006197D7019927882796018501082B192B64
:1009C0002A2B3B2B09AB1AAB2BAB3CAB62C26E1490
:1009D0007F048006910608F451C220E0E21620E070
:1009E000F20621E0020720E0120788F43FEFE31649
:1009F000F1040105110531F028F048E050E060E015
:100A000070E017C040E050E060E070E012C040E0ED
:100A1000E41640E0F40640E0040741E0140728F043
:100A200048E150E060E070E004C040E150E060E088
:100A300070E0D801C701042E04C0B695A79597951C
:100A400087950A94D2F782579E4FDC012C9130E2B1
:100A5000A32EB12CC12CD12CD601C501841B950B22
:100A6000A60BB70B821B9109A109B1090097A1053B
:100A7000B10589F4E614F7040805190508F4F2C174
:100A80006DA47EA48FA498A86214730484049504B2
:100A900008F0E8C1F3C16E968FAF6E97082E04C0C0
:100AA000EE0CFF1C001F111F0A94D2F76A2D681B61
:100AB000D201C101062E04C0B695A79597958795DA
:100AC0000A94D2F75C016D01AE28BF28C02AD12A52
:100AD000ADA2BEA2CFA2D8A6720161016E960FACE4
:100AE0006E9704C0CC0CDD1CEE1CFF1C0A94D2F7E0
:100AF000C9A2DAA2EBA2FCA264015301062E04C033
:100B0000D694C794B794A7940A94D2F7D401C3019A
:100B10006E960FAC6E9704C0880F991FAA1FBB1F5B
:100B20000A94D2F7EDA4FEA40FA518A904C0169547
:100B30000795F794E7946A95D2F737014801682A38
:100B4000792A8A2A9B2A6D8E7E8E8F8E98A2EDA09E
:100B5000FEA00FA118A538018824992498018701C7
:100B60002070307065960CAF1DAF2EAF3FAF65970C
:100B7000C601B501A40193010E9424267B018C01CA
:100B8000C601B501A40193010E942426C901DA011E
:100B90001C012D01C201B10165962CAD3DAD4EADDC
:100BA0005FAD65970E9405269B01AC018701FF247C
:100BB000EE24AD8CBE8CCF8CD8A0C601AA27BB2753
:100BC00057016801A82AB92ACA2ADB2AA216B30645
:100BD000C406D50600F508942108310841085108DB
:100BE000EDA0FEA00FA118A5AE0CBF1CC01ED11E0B
:100BF000AE14BF04C006D10670F0A216B306C40638
:100C0000D50648F408942108310841085108AE0C73
:100C1000BF1CC01ED11EA21AB30AC40AD50AC6013F
:100C2000B501A40193010E9424267B018C01C60119
:100C3000B501A40193010E942426C901DA013C01F7
:100C40004D01C401B30165962CAD3DAD4EAD5FAD18
:100C500065970E9405269B01AC018701FF24EE24C5
:100C60008D8D9E8DAF8DB8A1A070B07057016801B9
:100C7000A82AB92ACA2ADB2AA216B306C406D506B0
:100C800000F5089461087108810891086DA17EA1A2
:100C90008FA198A5A60EB71EC81ED91EA616B70608
:100CA000C806D90670F0A216B306C406D50648F4E5
:100CB00008946108710881089108A60EB71EC81E25
:100CC000D91ED601C501821B930BA40BB50B898FCE
:100CD0009A8FAB8FBC8FD10199278827640153016C
:100CE000A82AB92ACA2ADB2AA9AABAAACBAADCAAA4
:100CF000860175012FEF3FEF40E050E0E222F32242
:100D000004231523A601662777276D964CAF5DAFA8
:100D10006EAF7FAF6D97A9A0BAA0CBA0DCA06FEF9C
:100D20007FEF80E090E0A622B722C822D92289A1D5
:100D30009AA1ABA1BCA11D0144245524C801B7014F
:100D4000A60195010E94052669966CAF7DAF8EAF16
:100D50009FAF6997C801B701A20191010E940526C2
:100D60003B014C016D966CAD7DAD8EAD9FAD6D9729
:100D7000A60195010E9405267B018C016D966CAD44
:100D80007DAD8EAD9FAD6D97A20191010E940526AC
:100D90005B016C01A8019701260D371D481D591DE7
:100DA00069966CAC7DAC8EAC9FAC6997C401AA27E8
:100DB000BB27280F391F4A1F5B1F2E153F05400711
:100DC000510748F4E12CF12C61E0062F112DAE0CF7
:100DD000BF1CC01ED11ECA01AA27BB27BC01CD0162
:100DE0006A0D7B1D8C1D9D1D698C7A8C8B8C9C8C57
:100DF000661677068806990640F166157705880518
:100E0000990509F043C0D9019927882769962CAD27
:100E10003DAD4EAD5FAD699740705070820F931F2E
:100E2000A41FB51F2DA53EA54FA558A96E960FACC2
:100E30006E9704C0220F331F441F551F0A94D2F728
:100E4000281739074A075B0708F509A91AA92BA92A
:100E50003CA9015010402040304009AB1AAB2BABED
:100E60003CAB14C066247724430121E030E040E02D
:100E700050E029AB3AAB4BAB5CAB0BC0662477249C
:100E8000430119AA1AAA1BAA1CAA03C06624772424
:100E90004301FE01719688E0DF011D928A95E9F712
:100EA000A9A8BAA8CBA8DCA8A98ABA8ACB8ADC8A66
:100EB0006D8A7E8A8F8A988E29A93A894B895C89A6
:100EC000662D7E898F89988DC25ADF4FE2E10C949E
:100ED0006226ABE5B0E0EFE6F7E00C944626A8E02A
:100EE0004E010894811C911CF4016A2E11926A949F
:100EF000E9F729833A834B835C836D837E838F83F9
:100F00009887CE010996FC011192AA95E9F7A98666
:100F1000BA86CB86DC86ED86FE860F87188B298401
:100F20003A844B845C84AD84BE84CF84D888298184
:100F30003A814B815C8169962FAF69976A963FAF82
:100F40006A976B964FAF6B976C965FAF6C976C968A
:100F50006CAC7DAC8EAC9FAC6C9769AA7AAA8BAA5C
:100F60009CAA6D817E818F8198853B014C016DAA81
:100F70007EAA8FAA98AEA114B104C104D10409F0CD
:100F800004C3621473048404950408F000C100E0F3
:100F9000201600E0300601E0400600E0500688F42C
:100FA0001FEF211631044104510439F030F088E07C
:100FB000E82EF12C012D112D18C0EE24FF248701FD
:100FC00014C040E0241640E0340640E0440641E00E
:100FD000540630F0B8E1EB2EF12C012D112D05C097
:100FE000A0E1EA2EF12C012D112DD201C1010E2C10
:100FF00004C0B695A795979587950A94D2F782571E
:101000009E4FDC012C9180E290E0A0E0B0E08E19D0
:101010009F09A00BB10B5C016D01A21AB108C108B8
:10102000D108A9AEBAAECBAEDCAEA114B104C104F6
:10103000D10409F43FC069AD062E04C0220C331C54
:10104000441C551C0A94D2F7A4019301062E04C037
:10105000220F331F441F551F0A94D2F780E290E0FD
:101060008A199B096C96CCACDDACEEACFFAC6C97EE
:1010700004C0F694E794D794C7948A95D2F7870171
:101080007601E22AF32A042B152BEDAAFEAA0FAB58
:1010900018AF6C968CAD9DADAEADBFAD6C9704C076
:1010A000880F991FAA1FBB1F6A95D2F789AB9AAB0D
:1010B000ABABBCAB320188249924B201A1016070B2
:1010C000707021964CAF5DAF6EAF7FAF21976DA969
:1010D0007EA98FA998ADA40193010E9424267B01CB
:1010E0008C016DA97EA98FA998ADA40193010E94DE
:1010F0002426CA01B90121962CAD3DAD4EAD5FADA0
:1011000021970E9405269B01AC018701FF24EE2454
:10111000A9A8BAA8CBA8DCA8C601AA27BB27570153
:101120006801A82AB92ACA2ADB2AA216B306C4066D
:10113000D50690F4A20CB31CC41CD51CA214B30495
:10114000C404D50448F0A216B306C406D50620F49C
:10115000A20CB31CC41CD51CA21AB30AC40AD50A1B
:10116000C601B501A40193010E9424267B018C01D4
:10117000C601B501A40193010E942426CA01B90148
:1011800021962CAD3DAD4EAD5FAD2197BAC1211476
:1011900031044104510471F461E070E080E090E0BA
:1011A00020E030E040E050E00E942426C901DA014E
:1011B0001C012D0100E0201600E0300601E0400691
:1011C00000E0500688F41FEF211631044104510459
:1011D00039F030F068E0E62EF12C012D112D18C009
:1011E000EE24FF24870114C040E0241640E03406BA
:1011F00040E0440641E0540630F058E1E52EF12C81
:10120000012D112D05C040E1E42EF12C012D112DF1
:10121000D201C1010E2C04C0B695A795979587956C
:101220000A94D2F782579E4FDC012C9130E2A32E14
:10123000B12CC12CD12CD601C5018E199F09A00B50
:10124000B10B7C018D01E21AF10801091109E9AE27
:10125000FAAE0BAF1CAFE114F1040105110539F42E
:1012600064015301A218B308C408D508E2C0F9AC60
:101270006896FFAE68970F2C04C0220C331C441CE8
:10128000551C0A94D2F78A2D8F1964015301082E38
:1012900004C0D694C794B794A7940A94D2F7A40133
:1012A000930104C0220F331F441F551FFA94D2F735
:1012B0006C966CAC7DAC8EAC9FAC6C9704C0969475
:1012C0008794779467948A95D2F784017301E22A10
:1012D000F32A042B152BEDA6FEA60FA718AB32019F
:1012E00088249924B201A1016070707025964CAFDA
:1012F0005DAF6EAF7FAF2597C601B501A401930125
:101300000E9424267B018C01C601B501A401930132
:101310000E942426CA01B90125962CAD3DAD4EADE3
:101320005FAD25970E9405269B01AC018701FF2434
:10133000EE24ADA4BEA4CFA4D8A8C601AA27BB277B
:101340005C016D01AE28BF28C02AD12AA216B306BF
:10135000C406D50690F4A20CB31CC41CD51CA21460
:10136000B304C404D50448F0A216B306C406D506D7
:1013700020F4A20CB31CC41CD51CA21AB30AC40AC4
:10138000D50AC601B501A40193010E9424267B0160
:101390008C01C601B501A40193010E942426CA0153
:1013A000B90125962CAD3DAD4EAD5FAD25970E94A0
:1013B00005269B01AC018701FF24EE248DA59EA587
:1013C000AFA5B8A9A070B07057016801A82AB92AC2
:1013D000CA2ADB2AA216B306C406D50690F4A20CCC
:1013E000B31CC41CD51CA214B304C404D50448F017
:1013F000A216B306C406D50620F4A20CB31CC41C66
:10140000D51C6C96ECACFDAC0EAD1FAD6C97689620
:101410000FAC689704C0EE0CFF1C001F111F0A944C
:10142000D2F7E9AAFAAA0BAB1CABA21AB30AC40AF8
:10143000D50A320188249924B201A101607070702C
:1014400029964CAF5DAF6EAF7FAF2997C601B5014E
:10145000A40193010E9424267B018C01C601B501E1
:10146000A40193010E942426CA01B90129962CAD3A
:101470003DAD4EAD5FAD29970E9405269B01AC01A5
:101480008701FF24EE24A9A8BAA8CBA8DCA8C6012E
:10149000AA27BB2757016801A82AB92ACA2ADB2A2A
:1014A000A216B306C406D50690F4A20CB31CC41C45
:1014B000D51CA214B304C404D50448F0A216B30684
:1014C000C406D50620F4A20CB31CC41CD51CA21A59
:1014D000B30AC40AD50AC601B501A40193010E944A
:1014E00024267B018C01C601B501A40193010E9451
:1014F0002426CA01B90129962CAD3DAD4EAD5FAD94
:1015000029970E9405269B01AC018701FF24EE2448
:1015100089A99AA9ABA9BCA9A070B070E82AF92A38
:101520000A2B1B2BE216F3060407150790F4E20CB6
:10153000F31C041D151DE214F3040405150548F001
:10154000E216F3060407150720F4E20CF31C041D51
:10155000151DE21AF30A040B150BD801C70109ACDB
:1015600004C0B695A795979587950A94D2F7898B6D
:101570009A8BAB8BBC8B1D8A1E8A1F8A188E282FD4
:101580003A894B895C896D890CC36A147B048C048D
:101590009D0408F409C300E0A01600E0B00601E0D5
:1015A000C00600E0D00688F41FEFA116B104C10404
:1015B000D10439F030F028E0E22EF12C012D112D6C
:1015C00018C0EE24FF24870114C040E0A41640E0B8
:1015D000B40640E0C40641E0D40630F098E1E92EBC
:1015E000F12C012D112D05C080E1E82EF12C012DEB
:1015F000112DD601C5010E2C04C0B695A79597955F
:1016000087950A94D2F782579E4FDC012C9180E295
:1016100090E0A0E0B0E08E199F09A00BB10B821BF7
:101620009109A109B1090097A105B10509F04FC0C1
:10163000A614B704C804D90458F06C96ECACFDAC01
:101640000EAD1FAD6C97E214F3040405150568F1A7
:101650006C96ECACFDAC0EAD1FAD6C97E218F308C8
:1016600004091509A40193012A193B094C095D09D4
:10167000AA24BB2465016C966CAD7DAD8EAD9FAD8B
:101680006C976E157F058007910728F4B1E0AB2EAB
:10169000B12CC12CD12CDA01C9018A199B09AC09E2
:1016A000BD098DAB9EABAFABB8AFE98AFA8A0B8BA5
:1016B0001C8B6DA87EA88FA898AC6D8A7E8A8F8AB5
:1016C000988E2E2D3A894B895C896DA96AC26796DE
:1016D0008FAF6797A6019501082E04C0220F331F14
:1016E000441F551F0A94D2F7A0E2AA2EA81A6696A4
:1016F000AFAE6697D201C10104C0B695A795979584
:101700008795AA94D2F76C017D01C22AD32AE42AD4
:10171000F52AC9A6DAA6EBA6FCA682017101679696
:101720000FAC679704C0EE0CFF1C001F111F0A943A
:10173000D2F7EDA2FEA20FA318A76401530166968B
:101740000FAC669704C0D694C794B794A7940A9434
:10175000D2F7A401930167960FAC679704C0220FDC
:10176000331F441F551F0A94D2F76C968CAD9DAD64
:10177000AEADBFAD6C9766960FAC669704C0B695DC
:10178000A795979587950A94D2F73C014D01622A57
:10179000732A842A952A69A27AA28BA29CA26C96AB
:1017A000ECACFDAC0EAD1FAD6C9767960FAC6797B8
:1017B00004C0EE0CFF1C001F111F0A94D2F7ED8E1F
:1017C000FE8E0F8F18A349A55AA56BA57CA53B01DA
:1017D00088249924607070702D964CAF5DAF6EAF09
:1017E0007FAF2D97C601B501A40193010E94242665
:1017F0007B018C01C601B501A40193010E9424263E
:10180000C901DA011C012D01C201B1012D962CADD7
:101810003DAD4EAD5FAD2D970E9405269B01AC01FD
:101820008701FF24EE24A9A0BAA0CBA0DCA0C601AA
:10183000AA27BB2757016801A82AB92ACA2ADB2A86
:10184000A216B306C406D50600F50894210831088F
:1018500041085108E9A4FAA40BA51CA5AE0CBF1CB5
:10186000C01ED11EAE14BF04C006D10670F0A21671
:10187000B306C406D50648F4089421083108410887
:101880005108AE0CBF1CC01ED11EA21AB30AC40A56
:10189000D50AC601B501A40193010E9424267B014B
:1018A0008C01C601B501A40193010E942426C9013F
:1018B000DA013C014D01C401B3012D962CAD3DADC3
:1018C0004EAD5FAD2D970E9405269B01AC018701AF
:1018D000FF24EE2489A19AA1ABA1BCA1A070B07095
:1018E00057016801A82AB92ACA2ADB2AA216B30618
:1018F000C406D50600F508946108710881089108AE
:1019000069A57AA58BA59CA5A60EB71EC81ED91ED3
:10191000A616B706C806D90670F0A216B306C40606
:10192000D50648F408946108710881089108A60E4C
:10193000B71EC81ED91ED601C501821B930BA40B6E
:10194000B50B898F9A8FAB8FBC8FD10199278827D0
:1019500084017301E82AF92A0A2B1B2B4FEFA42ECE
:101960004FEFB42EC12CD12CAE20BF20C022D122EB
:101970007801002711276DA07EA08FA098A44FEFBB
:101980005FEF60E070E064227522862297228DA1CD
:101990009EA1AFA1B8A5BD018827992765966CAF18
:1019A0007DAF8EAF9FAF6597C601B501A4019301CE
:1019B0000E94052661966CAF7DAF8EAF9FAF619799
:1019C000C601B50165962CAD3DAD4EAD5FAD6597D9
:1019D0000E9405261B012C01C801B701A401930137
:1019E0000E9405265B016C01C801B70165962CAD0C
:1019F0003DAD4EAD5FAD65970E9405267B018C0124
:101A0000A6019501220D331D441D551D61966CAC38
:101A10007DAC8EAC9FAC6197C401AA27BB27280F71
:101A2000391F4A1F5B1F2A153B054C055D0548F40D
:101A3000812C912CE1E0AE2EB12CE80CF91C0A1D92
:101A40001B1DCA01AA27BB2757016801A80EB91E92
:101A5000CA1EDB1EA9013327222761968CAD9DADDE
:101A6000AEADBFAD6197A070B070280F391F4A1F8F
:101A70005B1FE98CFA8C0B8D1C8DEA14FB040C05A2
:101A80001D0570F0AE14BF04C006D10669F56D8D5A
:101A90007E8D8F8D98A1621773078407950720F5B7
:101AA000DA01C9016DA07EA08FA098A486199709BC
:101AB000A809B909E9A4FAA40BA51CA5AE18BF088A
:101AC000C00AD10AEE24FF248701281739074A07E4
:101AD0005B0728F421E0E22EF12C012D112DAE1828
:101AE000BF08C00AD10A02C0DA01C9016D8C7E8C20
:101AF0008F8C98A0681A790A8A0A9B0A498D5A8D98
:101B00006B8D7C8D4A195B096C097D095A016B014B
:101B10002224332421016D8D7E8D8F8D98A1661531
:101B200077058805990528F481E0282E312C412C71
:101B3000512C86017501E218F30804091509A80162
:101B4000970166960FAC669704C0220F331F441F9F
:101B5000551F0A94D2F7D401C30167960FAC67975B
:101B600004C0B695A795979587950A94D2F7282B28
:101B7000392B4A2B5B2B298B3A8B4B8B5C8B6796D3
:101B80000FAC679704C016950795F794E7940A94ED
:101B9000D2F7ED8AFE8A0F8B188F3A894B895C89C0
:101BA0006E2D7E898F89988DC55ADF4FE2E10C94A6
:101BB0006226A0E0B0E0EFEDFDE00C944626DC01EB
:101BC0002B01FA019C91923008F439C1EB01888114
:101BD000823008F433C1943069F4843009F02FC1A5
:101BE00011969C9111978981981709F428C1A6E84C
:101BF000B1E025C1843009F421C18230A9F49230CA
:101C000009F01DC19A01AD0188E0EA010990AE0119
:101C1000E90109929E018150C1F7E2018981119683
:101C20009C918923818308C1923009F407C11296DF
:101C30002D903C901397EB018A819B811496AD9077
:101C4000BD90CD90DC901797EC80FD800E811F81B8
:101C50009101281B390BB90137FF04C0662777278C
:101C6000621B730B603271050CF061C01216130613
:101C70006CF537014801062E04C09694879477943A
:101C800067940A94D2F721E030E040E050E004C0CD
:101C9000220F331F441F551F6A95D2F72150304041
:101CA000404050402E213F21402351232115310532
:101CB0004105510521F021E030E040E050E079019C
:101CC0008A01E628F728082919293CC0232BD1F1DD
:101CD000260E371E35014601062E04C096948794C1
:101CE000779467940A94D2F721E030E040E050E026
:101CF00004C0220F331F441F551F6A95D2F721508D
:101D00003040404050402A213B214C215D2121158B
:101D100031054105510521F021E030E040E050E07F
:101D200059016A01A628B728C828D9280BC08215EE
:101D300093052CF01C01AA24BB24650103C0EE24EA
:101D4000FF24870111969C91D20111968C919817CE
:101D500009F445C0992339F0A80197012A193B09D4
:101D60004C095D0906C0A60195012E193F09400BDB
:101D7000510B57FD08C011823382228224833583A0
:101D8000468357831DC081E0818333822282882766
:101D90009927DC01821B930BA40BB50B84839583DD
:101DA000A683B7830DC0220F331F441F551F248302
:101DB00035834683578382819381019793838283FE
:101DC0002481358146815781DA01C9010197A10932
:101DD000B1098F5F9F4FAF4FBF4328F30BC0918373
:101DE00033822282EA0CFB1C0C1D1D1DE482F5824D
:101DF0000683178383E08083248135814681578160
:101E000057FF1AC0C901AA2797FDA095BA2F817064
:101E10009070A070B0705695479537952795822B96
:101E2000932BA42BB52B84839583A683B7838281C0
:101E30009381019693838283DF0101C0D201CD019A
:101E4000CDB7DEB7E2E10C946226A0E2B0E0EBE2AF
:101E5000FFE00C94522669837A838B839C832D83C5
:101E60003E834F835887E9E0EE2EF12CEC0EFD1EE9
:101E7000CE010196B7010E94D6118E010F5E1F4F51
:101E8000CE010596B8010E94D6118A8991E0892772
:101E90008A8BC701B801AE01475E5F4F0E94D90D22
:101EA0000E940111A096E6E00C946E26A0E2B0E03C
:101EB000ECE5FFE00C94522669837A838B839C8344
:101EC0002D833E834F835887F9E0EF2EF12CEC0EE3
:101ED000FD1ECE010196B7010E94D6118E010F5E44
:101EE0001F4FCE010596B8010E94D611C701B80157
:101EF000AE01475E5F4F0E94D90D0E940111A0966E
:101F0000E6E00C946E26A0E2B0E0E9E8FFE00C9475
:101F1000462669837A838B839C832D833E834F83FC
:101F20005887CE010196BE01675F7F4F0E94D61190
:101F3000CE010596BE016F5E7F4F0E94D611998536
:101F4000923088F089898230C8F0943019F4823058
:101F500051F404C0843029F4923081F486E891E091
:101F6000C6C0923049F420E09A858A89981321E00E
:101F70002A87CE010996BBC0823049F420E09A85B9
:101F80008A89981321E02A8BCE014196B0C02D8416
:101F90003E844F8458886D887E888F88988CEE2484
:101FA000FF248701AA24BB24650140E050E060E0E3
:101FB00070E0E0E0F0E0C10181709070892BE9F001
:101FC000E60CF71C081D191D9A01AB012A0D3B1DDB
:101FD0004C1D5D1D80E090E0A0E0B0E0E614F70449
:101FE0000805190520F481E090E0A0E0B0E0BA0116
:101FF000A901480F591F6A1F7B1FAA0CBB1CCC1CD0
:10200000DD1C97FE08C081E090E0A0E0B0E0A82AC7
:10201000B92ACA2ADB2A3196E032F10549F0660C6A
:10202000771C881C991C5694479437942794C3CFE7
:10203000FA85EA892B893C898B859C85280F391F75
:102040002E5F3F4F17C0CA0181709070892B61F0DD
:1020500016950795F794E79480E090E0A0E0B0E84B
:10206000E82AF92A0A2B1B2B7695679557954795F1
:102070002F5F3F4F77FDE7CF0CC0440F551F661F02
:10208000771F17FD4160EE0CFF1C001F111F215030
:102090003040403090E0590790E0690790E47907BC
:1020A00060F32B8F3C8FDB01CA018F779070A0709B
:1020B000B07080349105A105B10561F447FD0AC0F7
:1020C000E114F1040105110529F0405C5F4F6F4FE9
:1020D0007F4F40781A8EFE1711F081E08A8F4D8F66
:1020E0005E8F6F8F78A383E0898FCE0149960E941F
:1020F0000111A096E2E10C946226A8E1B0E0E3E8C9
:10210000F0E10C94522669837A838B839C832D8320
:102110003E834F83588789E0E82EF12CEC0EFD1E9C
:10212000CE010196B7010E94D6118E010F5E1F4F9E
:10213000CE010596B8010E94D6118985823040F003
:102140008989823028F0C701B8010E944E1201C06F
:102150008FEF6896E6E00C946E26ACE0B0E0E3EB1F
:10216000F0E10C94562669837A838B839C83CE019D
:102170000196BE016B5F7F4F0E94D6118D81823028
:1021800061F1823050F1843021F48E81882351F145
:102190002EC02F81388537FD20C06E812F3131054B
:1021A0001CF06623F9F023C08EE190E0821B930BB4
:1021B00029853A854B855C8504C0569547953795AA
:1021C00027958A95D2F76623B1F0509540953095C2
:1021D00021953F4F4F4F5F4F0EC020E030E040E071
:1021E00050E009C02FEF3FEF4FEF5FE704C020E062
:1021F00030E040E050E8B901CA012C96E2E00C94CE
:102200007226DF92EF92FF920F931F93FC01E480FE
:10221000F58006811781D1808081823048F480E08A
:1022200090E0A0E1B0E0E82AF92A0A2B1B2BA5C018
:10223000843009F49FC0823021F4EE24FF2487010A
:1022400005C0E114F1040105110519F4E0E0F0E026
:1022500096C0628173819FEF623879070CF05BC092
:1022600022E83FEF261B370B2A3131052CF020E006
:1022700030E040E050E02AC0B801A701022E04C0BF
:1022800076956795579547950A94D2F781E090E047
:10229000A0E0B0E004C0880F991FAA1FBB1F2A95B9
:1022A000D2F70197A109B1098E219F21A023B12363
:1022B0000097A105B10521F081E090E0A0E0B0E039
:1022C0009A01AB01282B392B4A2B5B2BDA01C90170
:1022D0008F779070A070B07080349105A105B10522
:1022E00039F427FF09C0205C3F4F4F4F5F4F04C0B8
:1022F000215C3F4F4F4F5F4FE0E0F0E02030A0E027
:102300003A07A0E04A07A0E45A0710F0E1E0F0E045
:1023100079018A0127C06038710564F5FB01E15835
:10232000FF4FD801C7018F779070A070B0708034D4
:102330009105A105B10539F4E7FE0DC080E490E0F8
:10234000A0E0B0E004C08FE390E0A0E0B0E0E80ED1
:10235000F91E0A1F1B1F17FF05C016950795F79456
:10236000E794319687E016950795F794E7948A9558
:10237000D1F705C0EE24FF248701EFEFF0E06E2FC8
:10238000679566276795902F9F77D794DD24D7941C
:102390008E2F8695492F462B582F5D29B701CA01EC
:1023A0001F910F91FF90EF90DF900895FC01DB01EA
:1023B000408151812281622F6F7770E0221F222796
:1023C000221F9381892F880F822B282F30E0991F9D
:1023D0009927991F11969C93119721153105A9F5FD
:1023E000411551056105710511F482E037C082E89D
:1023F0009FEF13969C938E9312979A01AB0167E01F
:10240000220F331F441F551F6A95D1F783E08C9329
:102410000DC0220F331F441F551F12968D919C91A2
:102420001397019713969C938E931297203080E018
:10243000380780E0480780E4580758F314962D9336
:102440003D934D935C93179708952F3F310579F491
:10245000411551056105710519F484E08C930895C7
:1024600064FF03C081E08C9312C01C9210C02F57F0
:10247000304013963C932E93129783E08C9387E021
:10248000440F551F661F771F8A95D1F77064149605
:102490004D935D936D937C93179708951F93DC0183
:1024A000FB019C91923008F447C08081823008F48F
:1024B00043C0943051F411961C91843099F5818178
:1024C000682F70E0611B71093FC0843021F09230A9
:1024D00031F48230B9F18181882389F12DC01196C0
:1024E0001C9111978230F1F081811817D9F412965E
:1024F0002D913C911397828193818217930794F0D9
:1025000028173907BCF014968D919D910D90BC91C0
:10251000A02D2481358146815781281739074A0724
:102520005B0718F4112341F00AC082179307A40730
:10253000B50740F4112319F061E070E005C06FEFBA
:102540007FEF02C060E070E0CB011F9108953E9ADA
:102550003F983D9886B1887F86B986B1866086B9F6
:10256000379A33980895379A089537980895339A8B
:10257000089533980895982F883030F486B1887F75
:1025800086B986B1892B86B980E00895982FFB0122
:102590006115710519F422E030E038C08091EC0239
:1025A000882319F023E030E031C087B1807E87B9FD
:1025B00087B1892B87B9369A80E090E0A0E0B0E03F
:1025C00003C00196A11DB11D349B06C08055934CDC
:1025D000A040B04051F416C0803523EC920720E0B3
:1025E000A20720E0B20769F70DC0349A84B145B163
:1025F000342F20E090E0282B392B3183208320E0FA
:1026000030E002C024E030E01092EC02C9010895ED
:10261000982F6115710501F141155105E9F080917F
:10262000EC02882311F083E0089581E08093EC02AE
:102630001092EF027093EB026093EA025093EE0265
:102640004093ED0287B1807E87B987B1892B87B926
:10265000369A339A80E0089582E00895FC0100974D
:10266000A9F1A081B181109789F145815681411569
:10267000510561F1228133812115310539F18091B4
:10268000EC02882311F083E0089581E08093EC024E
:102690008093EF023093EB022093EA02B093F102B1
:1026A000A093F00284818093F2025093EE02409353
:1026B000ED021092F30287B1807E87B987B19C91B9
:1026C000892B87B9369A339A80E0089582E008957D
:1026D0001F920F920FB60F9211242F933F934F9397
:1026E0005F936F937F938F939F93AF93BF93EF937A
:1026F000FF938091EF02E091EA02F091EB028823D0
:1027000051F424B145B1942F80E030E0822B932B1B
:102710009183808312C024B145B1942F80E030E0D2
:10272000822B932B918380832091F3022F5F209340
:10273000F3028091F202281749F41092EC02E09122
:10274000ED02F091EE02099533980EC087B1807EBC
:1027500087B997B1E091F002F091F102E20FF11D1B
:102760008081982B97B9369AFF91EF91BF91AF91E5
:102770009F918F917F916F915F914F913F912F9199
:102780000F900FBE0F901F9018954130B1F581301A
:1027900099F0813030F08230D1F0833009F067C099
:1027A00021C02AB381E090E002C0880F991F6A958A
:1027B000E2F7282B2ABB089527B381E090E002C0FE
:1027C000880F991F6A95E2F7282B27BB089524B339
:1027D00081E090E002C0880F991F6A95E2F7282BEC
:1027E00024BB089521B381E090E002C0880F991FB7
:1027F0006A95E2F7282B21BB08954423C1F5813067
:1028000099F0813028F08230D9F0833081F524C0EE
:102810002AB381E090E002C0880F991F6A95E2F721
:10282000809582238ABB089527B381E090E002C09F
:10283000880F991F6A95E2F78095822387BB0895D8
:1028400024B381E090E002C0880F991F6A95E2F7F7
:102850008095822384BB089521B381E090E002C07B
:10286000880F991F6A95E2F78095822381BB0895AE
:102870004130B1F5813099F0813030F08230D1F0C3
:10288000833009F067C021C02BB381E090E002C023
:10289000880F991F6A95E2F7282B2BBB089528B360
:1028A00081E090E002C0880F991F6A95E2F7282B1B
:1028B00028BB089525B381E090E002C0880F991FDE
:1028C0006A95E2F7282B25BB089522B381E090E0BA
:1028D00002C0880F991F6A95E2F7282B22BB089542
:1028E0004423C1F5813099F0813028F08230D9F04D
:1028F000833081F524C02BB381E090E002C0880FC3
:10290000991F6A95E2F7809582238BBB089528B3BF
:1029100081E090E002C0880F991F6A95E2F78095E8
:10292000822388BB089525B381E090E002C0880F20
:10293000991F6A95E2F78095822385BB089522B39B
:1029400081E090E002C0880F991F6A95E2F78095B8
:10295000822382BB0895813091F0813028F082304B
:10296000C9F0833061F521C02BB381E090E002C053
:10297000880F991F6A95E2F728272BBB089528B383
:1029800081E090E002C0880F991F6A95E2F728273E
:1029900028BB089525B381E090E002C0880F991FFD
:1029A0006A95E2F7282725BB089522B381E090E0DD
:1029B00002C0880F991F6A95E2F7282722BB089565
:1029C000813051F0813030F0823041F08330C1F0FD
:1029D00080E0089529B303C026B301C023B381E08A
:1029E00090E0062E02C0880F991F0A94E2F730E0AB
:1029F0008223932302C0959587956A95E2F70895FF
:102A000020B381E090E0062E02C0880F991F0A943F
:102A1000E2F730E08223932302C0959587956A956B
:102A2000E2F70895813049F0813028F0823039F0A2
:102A3000833041F406C06ABB089567BB089564BB48
:102A4000089561BB0895813049F0813028F08230CB
:102A500039F0833041F406C06BBB089568BB08951C
:102A600065BB089562BB0895813059F0813028F02C
:102A7000823059F0833081F40CC08BB380958BBBCE
:102A8000089588B3809588BB089585B3809585BBEC
:102A9000089582B3809582BB0895813051F08130D2
:102AA00030F0823041F0833041F080E0089589B306
:102AB000089586B3089583B3089580B30895629509
:102AC000607F813071F0813028F0823089F083306E
:102AD000E1F415C08BB38F708BBB8BB3682B6BBBD2
:102AE000089588B38F7088BB88B3682B68BB08953E
:102AF00085B38F7085BB85B3682B65BB089582B3A2
:102B00008F7082BB82B3682B62BB08956F70813077
:102B100071F0813028F0823089F08330E1F415C003
:102B20008BB3807F8BBB8BB3682B6BBB089588B353
:102B3000807F88BB88B3682B68BB089585B3807F8E
:102B400085BB85B3682B65BB089582B3807F82BB4C
:102B500082B3682B62BB0895813049F1813038F02F
:102B6000823009F444C0833009F081C060C0413034
:102B700091F480B78B7F80BF3AB381E090E002C0D0
:102B8000880F991F6A95E2F7282F209523232ABBE7
:102B90002BB3822B0AC02BB381E090E002C0880FD8
:102BA000991F6A95E2F7809582238BBB0895413087
:102BB00091F480B78B7F80BF37B381E090E002C093
:102BC000880F991F6A95E2F7282F2095232327BBAA
:102BD00028B3822B0AC028B381E090E002C0880F9E
:102BE000991F6A95E2F78095822388BB089541304A
:102BF00091F480B78B7F80BF34B381E090E002C056
:102C0000880F991F6A95E2F7282F2095232324BB6C
:102C100025B3822B0AC025B381E090E002C0880F63
:102C2000991F6A95E2F78095822385BB089541300C
:102C300099F480B78B7F80BF31B381E090E002C010
:102C4000880F991F6A95E2F7282F2095232321BB2F
:102C500022B3822B82BB089522B381E090E002C0B0
:102C6000880F991F6A95E2F78095822382BB0895A9
:102C70008EBB9FBB6DBBE29AE19AE199FECF0895AE
:102C80008EBB9FBBE09A8DB30895CF92DF92FF92E7
:102C90000F931F93CF93DF93FF24FA94C0E0D0E00B
:102CA00098ECC92ED12CCE018C5F082F81E0602FCB
:102CB00040E00E94381481E060E00E94E014882324
:102CC00011F410E017C081E061E00E94E014882355
:102CD00011F411E00FC081E062E00E94E01488234B
:102CE00011F412E007C081E063E00E94E014882341
:102CF000F9F413E084EF91E0F6013197F1F70197D1
:102D0000D9F781E0612F0E94E014882359F4E12F64
:102D1000F0E0EE0FFF1FEE0FFF1FEC0FFD1FE2575D
:102D2000FD4FF08081E0612F0E94E0148823D1F3F1
:102D300081E0602F41E00E9438142196C430D10513
:102D400009F0B1CF8F2DDF91CF911F910F91FF909F
:102D5000DF90CF90089581E060E041E00E94AC15E3
:102D600081E061E041E00E94AC1581E062E041E079
:102D70000E94AC1581E063E041E00E94AC1581E067
:102D800064E041E00E94C51381E065E041E00E94FB
:102D9000C51381E066E041E00E94C51381E067E071
:102DA00041E00E94C51381E064E041E00E943814D4
:102DB00081E065E041E00E94381481E066E041E096
:102DC0000E94381481E067E041E00E9438140895C1
:102DD0000F931F9382E062E041E00E94381400EDFF
:102DE00017E0C8010197F1F782E062E040E00E943D
:102DF0003814C8010197F1F71F910F9108951F939F
:102E0000182F82E060E040E00E94381482E061E028
:102E100040E00E943814612F62956F7082E00E943A
:102E20005F150E94E81682E0612F0E945F150E94E4
:102E3000E81680ED97E00197F1F71F91089581E082
:102E40000E94FF1680E29EE40197F1F70895982F03
:102E500081508430C0F46531B0F46623A1F0913024
:102E600019F4862F815810C0923019F4862F81549E
:102E70000BC0933019F4862F815706C0943021F48B
:102E8000862F815301C080E80E94FF1680ED97E0F5
:102E90000197F1F708951F93182F82E060E041E059
:102EA0000E94381482E061E040E00E943814612FF3
:102EB00062956F7082E00E945F150E94E81682E0C2
:102EC000612F0E945F150E94E81680ED97E0019740
:102ED000F1F71F9108950F931F93CF93DF93182F4E
:102EE000062F80E40E94FF16CEE9D2E089910E946D
:102EF0004B1782E0CE3DD807C9F7812F602F0E9483
:102F0000271710E0812F0E944B171F5F1830D1F751
:102F1000DF91CF911F910F9108952F923F924F9281
:102F20005F926F927F928F929F92AF92BF92CF9259
:102F3000DF92EF92FF920F931F93DF93CF93CDB762
:102F4000DEB729970FB6F894DEBF0FBECDBF2A8338
:102F50003B834C835D836E837F8388879987822F31
:102F6000832B842B852B862B872B9885892BE985B2
:102F70008E2B21F480E30E944B1733C1222423942B
:102F800033244424552466247724882499249101E9
:102F9000A201B301C40101E00E944900122FF32EE7
:102FA000E42ED52EC62EB72EA82E892E02E00E9422
:102FB0004900922E910E21E0911608F020E03F0D7D
:102FC000E1E03F1508F0E0E0722E730E21E0731689
:102FD00008F020E0E22B4E0D31E04E1508F030E015
:102FE0006E2E640E21E0641608F020E0322B5D0D99
:102FF00041E05D1508F040E0532E550E21E05516D6
:1030000008F020E0422B6C0D31E06C1508F030E048
:10301000442E460E21E0461608F020E0322B7B0DB0
:1030200041E07B1508F040E0332E370E21E03716E3
:1030300008F020E0422B8A0D31E08A1508F030E0DC
:10304000242E280E21E0281608F020E0322B980DBF
:10305000F32FF90FF9832A813B814C815D816E81C9
:103060007F8188859985AAE0AA2EBB24CC24DD2403
:10307000EE24FF2400E010E00E946907122F190DD2
:10308000F1E0121708F0F0E0232F270DE1E02317FD
:1030900008F0E0E0BF2FB20F31E0B21708F030E0E7
:1030A000E32B242F260DF1E0241708F0F0E0AE2FDB
:1030B000A20F31E0A21708F030E0F32B252F250DE9
:1030C00041E0251708F040E00F2F020F31E0021712
:1030D00008F030E0432B262F240D51E0261708F08E
:1030E00050E0642F620F31E0621708F030E0532B9C
:1030F000272F230D41E0271708F040E0520F31E061
:10310000521708F030E0432B282F220D31E028170A
:1031100008F030E0420F81E0421708F080E0382BE1
:103120008981890F212E3B2E4A2E502E662E752E18
:10313000842E982E930E2A813B814C815D816E8175
:103140007F8188859985FAE0AF2EBB24CC24DD24CD
:10315000EE24FF2400E010E00E94F4002A833B8369
:103160004C835D836E837F8388879987822F832B2F
:10317000842B852B862B872B9885892BE9858E2B95
:1031800009F005CF1DC09101A201B301C401EAE01D
:10319000AE2EBB24CC24DD24EE24FF2400E010E07E
:1031A0000E946907822F805D0E944B179101A20146
:1031B000B301C4010E94F40019012A013B014C0132
:1031C000F1E02F1601F73320F1F64420E1F6552007
:1031D000D1F66620C1F67720B1F68820A1F69920B5
:1031E00091F629960FB6F894DEBF0FBECDBFCF91F2
:1031F000DF911F910F91FF90EF90DF90CF90BF90E4
:10320000AF909F908F907F906F905F904F903F9086
:103210002F9008951F93CF93DF93EC0110E003C02C
:103220000E944B171F5FFE01E10FF11D8081882373
:10323000B9F7DF91CF911F9108950F931F9384EFFA
:1032400091E028EC30E0F9013197F1F70197D9F7D7
:1032500082E064E041E00E94C51382E065E041E065
:103260000E94C51382E066E041E00E94C51382E03F
:1032700067E041E00E94C51382E060E041E00E9407
:10328000C51382E061E041E00E94C51382E062E084
:1032900041E00E94C51382E00E94FF1600ED17E096
:1032A000C8010197F1F788E20E94FF16C801019753
:1032B000F1F78EE00E94FF16C8010197F1F70E9416
:1032C0001F1786E00E94FF16C8010197F1F71F91B2
:1032D0000F910895DF93CF9300D00F92CDB7DEB753
:1032E000962F6983672F7A838B83892F0E94AB1473
:1032F0000F900F900F90CF91DF910895DF93CF93B0
:1033000000D00F92CDB7DEB7262F69837A838B83E7
:10331000672F813019F4822F40E004C0882321F404
:10332000822F41E00E9438140F900F900F90CF91A0
:10333000DF910895DF93CF9300D00F92CDB7DEB722
:10334000262F69837A838B83672F813019F4822F2C
:1033500041E004C0882321F4822F40E00E94381409
:103360000F900F900F90CF91DF910895DF93CF933F
:1033700000D00F92CDB7DEB7962F6983672F7A837F
:103380008B83892F41E00E94C5130F900F900F90FF
:10339000CF91DF91089583B7806483BF83B788603E
:1033A00083BF83B78F7E83BF83B7806283BF1CBE1A
:1033B00083B7887F83BF83B783BF08958FB58E7F20
:1033C0008FBD8FB582608FBD8EB588608EBD8EB586
:1033D00080618EBD80ED97E09BBD8ABD99BD88BDA3
:1033E0008FE19EE497BD86BD8EB580648EBD8FB59E
:1033F0008F7B8FBD8FB580688FBD8FB58F7E8FBD62
:103400008FB580628FBD89B78B7F89BF89B78F7E6B
:1034100089BF89B7877F89BF89B78F7D89BF8EB5FF
:10342000887F8EBD8EB582608EBD089582B588601E
:1034300082BD85B5806485BD85B5886085BD85B54F
:103440008F7E85BD85B5806285BD80E183BD85B5F4
:10345000887F85BD85B5876085BD089582BF089545
:103460009DBD8CBD089584BD08958CBF089520E056
:1034700030E04AE754E40E94830F0E94C8007BBDFD
:103480006ABD089520E030E04AE754E40E94830FCB
:103490000E94C80079BD68BD089583BD089597BD99
:1034A00086BD089582B708952CB53DB5C90108952C
:1034B00084B508959BBD8ABD089595B5987F95BD47
:1034C00095B5982B95BD089593B7987F93BF93B703
:1034D000982B93BF08958EB580648EBD89B78062A6
:1034E00089BF0895813029F48EB580648EBD80E057
:1034F0000895882311F081E008958EB58F7B8EBDED
:1035000080E0089589B7806289BF089589B78F7D6B
:1035100089BF089526B537B5C901089581B5887F5B
:1035200081BD81B5866081BD089581B5886081BD0A
:10353000089581B5886181BD11BC0895009711F48B
:1035400082E00895E62FF0E0EE0FFF1FEC50FD4FF4
:103550009183808380E008951F920F920FB60F929F
:1035600011242F933F934F935F936F937F938F9388
:103570009F93AF93BF93EF93FF93E0910A03F09172
:103580000B03309709F00995FF91EF91BF91AF912F
:103590009F918F917F916F915F914F913F912F916B
:1035A0000F900FBE0F901F9018951F920F920FB69D
:1035B0000F9211242F933F934F935F936F937F93B9
:1035C0008F939F93AF93BF93EF93FF93E091080383
:1035D000F0910903309709F00995FF91EF91BF91A0
:1035E000AF919F918F917F916F915F914F913F919B
:1035F0002F910F900FBE0F901F9018951F920F9252
:103600000FB60F9211242F933F934F935F936F93B5
:103610007F938F939F93AF93BF93EF93FF93E0912B
:103620000603F0910703309709F00995FF91EF9198
:10363000BF91AF919F918F917F916F915F914F91CA
:103640003F912F910F900FBE0F901F9018951F92D2
:103650000F920FB60F9211242F933F934F935F93C6
:103660006F937F938F939F93AF93BF93EF93FF934A
:10367000E0910403F0910503309709F00995FF915B
:10368000EF91BF91AF919F918F917F916F915F91DA
:103690004F913F912F910F900FBE0F901F90189553
:1036A0001F920F920FB60F9211242F933F934F93B7
:1036B0005F936F937F938F939F93AF93BF93EF939A
:1036C000FF93E0910203F0910303309709F009950D
:1036D000FF91EF91BF91AF919F918F917F916F91EA
:1036E0005F914F913F912F910F900FBE0F901F90C0
:1036F00018951F920F920FB60F9211242F933F939C
:103700004F935F936F937F938F939F93AF93BF93E9
:10371000EF93FF93E0910003F0910103309709F0DC
:103720000995FF91EF91BF91AF919F918F917F91FB
:103730006F915F914F913F912F910F900FBE0F901E
:103740001F9018951F920F920FB60F9211242F936E
:103750003F934F935F936F937F938F939F93AF9319
:10376000BF93EF93FF93E091FE02F091FF02309739
:1037700009F00995FF91EF91BF91AF919F918F91C2
:103780007F916F915F914F913F912F910F900FBE5D
:103790000F901F9018951F920F920FB60F92112441
:1037A0002F933F934F935F936F937F938F939F9349
:1037B000AF93BF93EF93FF93E091FC02F091FD0272
:1037C000309709F00995FF91EF91BF91AF919F91CB
:1037D0008F917F916F915F914F913F912F910F90BA
:1037E0000FBE0F901F901895599810BC83E389B9AC
:1037F0005898529886E880BD579856985598549A8C
:10380000539A0895282F80910603882311F083E0AE
:10381000089580E090E0A0E0B0E003C00196A11D13
:10382000B11D5D9909C0803137E2930730E0A307ED
:1038300030E0B30799F708C080519742A040B040EC
:1038400019F02CB980E001C084E0109206030895BD
:10385000FC01009711F482E008958091060388230B
:1038600011F083E0089580E090E0A0E0B0E003C0B4
:103870000196A11DB11D5F9909C0803127E2920711
:1038800020E0A20720E0B20799F709C080519742D3
:10389000A040B04021F08CB1808380E001C084E082
:1038A0001092060308950F931F93CF93DF93009711
:1038B00011F482E014C0EC0108EC10E00DC00E948D
:1038C000021C28EE33E0F8013197F1F72150304027
:1038D000D1F72196882319F48881882381F7DF9115
:1038E000CF911F910F910895FC01809106038823C9
:1038F00011F083E008953097A9F06115710591F0FA
:1039000081E080930603F0930503E0930403709332
:1039100008036093070310920C0380818CB9569AB8
:1039200080E0089582E00895AF92BF92CF92DF9237
:10393000EF92FF920F931F93CF93DF93EC015A0105
:103940006B01009711F482E016C0EE24FF2487017A
:103950000CC0CE018E0D9F1D0E94281C882359F497
:103960000894E11CF11C011D111DEA14FB040C0557
:103970001D0578F380E0DF91CF911F910F91FF90AB
:10398000EF90DF90CF90BF90AF900895BC018091F1
:103990000603882311F083E0089561157105A9F0ED
:1039A0002115310591F081E08093060370930A039D
:1039B00060930903309308032093070340930B039C
:1039C00010920C03579A80E0089582E008951F92A8
:1039D0000F920FB60F9211242F933F934F935F9343
:1039E0006F937F938F939F93AF93BF93EF93FF93C7
:1039F00090910C038CB1E0910903F0910A03E90F57
:103A0000F11D80839F5F90930C0380910B039817A7
:103A100061F410920C0310920603E0910703F091F9
:103A20000803309709F009955798FF91EF91BF91DE
:103A3000AF919F918F917F916F915F914F913F9146
:103A40002F910F900FBE0F901F9018951F920F92FD
:103A50000FB60F9211242F933F934F935F936F9361
:103A60007F938F939F93AF93BF93EF93FF93809137
:103A70000C038F5F80930C03E0910403F091050326
:103A8000E80FF11DE081EE2369F410920C0310920F
:103A90000603E0910703F0910803309709F00995B8
:103AA000569801C0ECB9FF91EF91BF91AF919F91F2
:103AB0008F917F916F915F914F913F912F910F90D7
:103AC0000FBE0F901F901895EF92FF920F931F93C8
:103AD000DF93CF930F92CDB7DEB77E010894E11C40
:103AE000F11C08EC10E00E9445168F3F79F4C701E5
:103AF0000E94281C882311F4898108C084EF91E07A
:103B0000F8013197F1F70197D9F7EDCF0F90CF91E9
:103B1000DF911F910F91FF90EF9008950E941F1762
:103B200081E066E00E94271780E690E00E940A1973
:103B300082E061E00E9427178DE690E00E940A195A
:103B40000E94641D8093E002813329F0823341F0AA
:103B50008033B1F7089560E070E080EC9FE304C02B
:103B600060E070E080E090E40E94421AE9CF0E9499
:103B70001F1781E066E00E94271783E890E00E940B
:103B80000A1982E061E00E9427178DE690E00E940A
:103B90000A190E94641D8093E002813329F0823368
:103BA00091F08033B1F7089560E070E080EC9FE31E
:103BB0000E94371A6091E2027091E3028091E40260
:103BC0000E949A19E6CF60E070E080E090E40E94E5
:103BD000371A6091E2027091E3028091E4020E9440
:103BE0007E19D7CF1F931FEF0E941F1781E066E059
:103BF0000E94271782E990E00E940A1982E061E0A2
:103C00000E9427178FE990E00E940A190E94641D04
:103C10008093E002813329F0823331F0803331F434
:103C200008C00E94B71D02C00E948E1D1093E002C2
:103C3000DBCF1F9108950E941D190E94AB1683E0EF
:103C400065E041E00E94C51383E064E041E00E942A
:103C5000C5130E94DE1980E060E040E00E94C513B9
:103C60000E94F41B6091E2027091E3028091E402F1
:103C70000E94B6196091E5027091E6028091E70218
:103C80000E94B6190895FF920F931F93CF93DF936D
:103C90000E941B1E86EB90E00E940A199091DF02A1
:103CA00080910D03981769F480EE92E00E94281C21
:103CB0008091E0028F3FC1F38D3399F48091DE0251
:103CC0000EC08091DE02981761F40E944516809321
:103CD000E0028F3FD1F38D3321F480910D03809367
:103CE000DF020E941F1780E090E061E30E94381617
:103CF00081E090E062E30E94381682E090E063E3A6
:103D00000E94381683E090E064E30E9438168FEF3B
:103D10008093E0020E94442400E0FF24F394C8EC66
:103D2000D0E00EC0E02FF0E0EE5DFC4F1081802F60
:103D300090E00E944016181711F4F0920F030F5FE5
:103D4000043080F380910F03813019F41092E10266
:103D500002C0F092E1028091E802882319F180917B
:103D6000E102882319F08130B9F414C08CEB90E0A3
:103D70000E940A19F092270380E197E2FE01319731
:103D8000F1F70197D9F70E941F1781ED90E00E948B
:103D90000A1902C00E94362380912703882311F458
:103DA00000E0C0CF8091E802882361F489ED90E0C3
:103DB0000E940A196091E5027091E6028091E70283
:103DC0000E949A1980912703813029F460E070E005
:103DD00080EC9FE304C060E070E080E090E40E942B
:103DE000421A80E060E00E94E0148093100381306A
:103DF00079F460E070E080EC9FE30E94371A6091F4
:103E0000E2027091E3028091E4020E949A190EC0CE
:103E100060E070E080E090E40E94371A6091E20276
:103E20007091E3028091E4020E947E198FEF8093EB
:103E3000E0029091DF0280910D03981791F580EEDA
:103E400092E00E94281C80E060E00E94E0148093D1
:103E50001003813079F460E070E080EC9FE30E9411
:103E6000371A6091E2027091E3028091E4020E94AD
:103E70009A190EC060E070E080E090E40E94371A6A
:103E80006091E2027091E3028091E4020E947E1947
:103E90008091E0028F3F99F28D33E9F58091DE0247
:103EA00035C08091DE029817B1F50E9445168093C7
:103EB000E00280E060E00E94E01480931003813013
:103EC00079F460E070E080EC9FE30E94371A609123
:103ED000E2027091E3028091E4020E949A190EC0FE
:103EE00060E070E080E090E40E94371A6091E202A6
:103EF0007091E3028091E4020E947E198091E002B9
:103F00008F3F99F28D3339F480910D038093DF0256
:103F100081E38093E0028091E00280931103823379
:103F200009F4BBC0833320F4813309F041C207C0D8
:103F3000833309F463C1843309F03AC2CCC1809160
:103F40001103813329F460E070E080EC9FE306C048
:103F5000823339F460E070E080E090E40E94421A1D
:103F600021C0833379F460E070E080EC9FE30E942D
:103F7000371A6091E2027091E3028091E4020E949C
:103F80009A1910C0843371F460E070E080E090E42E
:103F90000E94371A6091E2027091E3028091E4027C
:103FA0000E947E1960E070E080EC9FE30E94421A5C
:103FB0009091DF0280910D03981791F580EE92E0C9
:103FC0000E94281C80E060E00E94E01480931003AF
:103FD000813079F460E070E080EC9FE30E94371A52
:103FE0006091E2027091E3028091E4020E949A19CA
:103FF0000EC060E070E080E090E40E94371A6091AB
:10400000E2027091E3028091E4020E947E198091A5
:10401000E002813399F28D33D1F58091DE0235C013
:104020008091DE02981799F50E9445168093E00270
:1040300080E060E00E94E01480931003813079F406
:1040400060E070E080EC9FE30E94371A6091E2022A
:104050007091E3028091E4020E949A190EC060E020
:1040600070E080E090E40E94371A6091E202709163
:10407000E3028091E4020E947E198091E0028F3F6A
:1040800099F28D3321F480910D038093DF028091AA
:10409000E002813309F453CF3ECF80911103813385
:1040A00029F460E070E080EC9FE306C0823339F4CD
:1040B00060E070E080E090E40E94421A21C0833307
:1040C00079F460E070E080EC9FE30E94371A609121
:1040D000E2027091E3028091E4020E949A1910C0FA
:1040E000843371F460E070E080E090E40E94371A5D
:1040F0006091E2027091E3028091E4020E947E19D5
:1041000060E070E080E090E40E94421A9091DF024B
:1041100080910D03981791F580EE92E00E94281C83
:1041200080E060E00E94E01480931003813079F415
:1041300060E070E080EC9FE30E94371A6091E20239
:104140007091E3028091E4020E949A190EC060E02F
:1041500070E080E090E40E94371A6091E202709172
:10416000E3028091E4020E947E198091E002823392
:1041700099F28D33D1F58091DE0235C08091DE0257
:10418000981799F50E9445168093E00280E060E060
:104190000E94E01480931003813079F460E070E0B5
:1041A00080EC9FE30E94371A6091E2027091E30273
:1041B0008091E4020E949A190EC060E070E080E0F5
:1041C00090E40E94371A6091E2027091E3028091BC
:1041D000E4020E947E198091E0028F3F99F28D33B4
:1041E00021F480910D038093DF028091E0028233FD
:1041F00009F453CF8D3309F450CF8DCE8091110344
:10420000813329F460E070E080EC9FE306C08233E4
:1042100039F460E070E080E090E40E94421A21C02E
:10422000833379F460E070E080EC9FE30E94371AFA
:104230006091E2027091E3028091E4020E949A1977
:1042400010C0843371F460E070E080E090E40E947C
:10425000371A6091E2027091E3028091E4020E94B9
:104260007E1960E070E080EC9FE30E94371A609155
:10427000E2027091E3028091E4020E949A19909107
:10428000DF0280910D03981769F480EE92E00E949E
:10429000281C8091E0028333C1F38D3399F480911F
:1042A000DE020EC08091DE02981761F40E9445166E
:1042B0008093E0028F3FD1F38D3321F480910D0381
:1042C0008093DF028091E002833309F497CF8D332E
:1042D00009F494CF20CE80911103813329F460E05A
:1042E00070E080EC9FE306C0823339F460E070E058
:1042F00080E090E40E94421A21C0833379F460E0A8
:1043000070E080EC9FE30E94371A6091E2027091A6
:10431000E3028091E4020E949A1910C0843371F480
:1043200060E070E080E090E40E94371A6091E20261
:104330007091E3028091E4020E947E1960E070E0D7
:1043400080E090E40E94371A6091E2027091E302EB
:104350008091E4020E947E199091DF0280910D030A
:10436000981769F480EE92E00E94281C8091E00288
:104370008433C1F38D3399F48091DE020EC08091B5
:10438000DE02981761F40E9445168093E0028F3F89
:10439000D1F38D3321F480910D038093DF0280915E
:1043A000E002843309F497CF8D3309F494CFB3CD71
:1043B0009091DF0280910D03981751F580EE92E005
:1043C0000E94281C80E060E00E94E01480931003AB
:1043D000813079F460E070E080EC9FE30E94371A4E
:1043E0006091E2027091E3028091E4020E949A19C6
:1043F000E5CF60E070E080E090E40E94371A6091C1
:10440000E2027091E3028091E4020E947E19D6CF0D
:104410008091DE02981709F07ECD0E9445168093A8
:10442000E00280E060E00E94E0148093100381309D
:1044300079F460E070E080EC9FE30E94371A6091AD
:10444000E2027091E3028091E4020E949A19E5CFA2
:1044500060E070E080E090E40E94371A6091E20230
:104460007091E3028091E4020E947E19D6CFEF9210
:10447000FF920F931F93CF93DF9387EE90E00E94FC
:104480000A1980E197E228EC30E0F9013197F1F761
:104490000197D9F70E941F178EEE90E00E940A192B
:1044A00080E197E228EC30E0F9013197F1F70197CC
:1044B000D9F70E941F178EEF90E00E940A19809191
:1044C000E802805D0E944B1780E197E228EC30E023
:1044D000F9013197F1F70197D9F70E941F1783E08F
:1044E00091E00E940A1982E061E00E942717C2E170
:1044F000D3E01FEF9091DF0280910D03981769F4CC
:1045000080EE92E00E94281C8091E0028F3FC1F370
:104510008D3399F48091DE020EC08091DE029817EF
:1045200061F40E9445168093E0028F3FD1F38D33F2
:1045300021F480910D038093DF028091E0028D339E
:1045400099F08F3329F480E20E944B1780E204C077
:104550000E944B178091E00288831093E00221961D
:1045600083E0C232D80731F60E941F1780E191E044
:104570000E940A1980E197E228EC30E0F9013197B6
:10458000F1F70197D9F70E941F178EEF90E00E9474
:104590000A198091E802805D0E944B1780E197E242
:1045A00028EC30E0F9013197F1F70197D9F70E9433
:1045B0001F1780E291E00E940A1982E061E00E94E8
:1045C0002717C2E2D3E010E088ECE82EF12C0FEFC1
:1045D0009091DF0280910D03981769F480EE92E0CC
:1045E0000E94281C8091E0028F3FC1F38D3399F423
:1045F0008091DE020EC08091DE02981761F40E9465
:1046000045168093E0028F3FD1F38D3321F48091E2
:104610000D038093DF028091E0020E944B1784EC2F
:1046200099E0F7013197F1F70197D9F71F5F82E021
:10463000612F0E9427178AE20E944B178091E002A7
:1046400089930093E002143009F0C2CF8091E80210
:1046500081508093E8020E941F170093E002DF91CF
:10466000CF911F910F91FF90EF900895EF92FF92DD
:104670000F931F93CF93DF9380E191E00E940A197B
:1046800080E197E228EC30E0F9013197F1F70197EA
:10469000D9F70E941F178EEF90E00E940A198091AF
:1046A000E802805D0E944B1788E893E128EC30E037
:1046B000F9013197F1F70197D9F70E941F1780E2AE
:1046C00091E00E940A1982E061E00E942717C2E28D
:1046D000D3E010E098ECE92EF12C0FEF9091DF027F
:1046E00080910D03981769F480EE92E00E94281CD7
:1046F0008091E0028F3FC1F38D3399F48091DE0207
:104700000EC08091DE02981761F40E9445168093D6
:10471000E0028F3FD1F38D3321F480910D0380931C
:10472000DF028091E0020E944B1784EC99E0F701D0
:104730003197F1F70197D9F71F5F82E0612F0E944F
:1047400027178AE20E944B178091E0028993009319
:10475000E002143009F0C2CF8091E80281508093CA
:10476000E8020E941F170093E002DF91CF911F9192
:104770000F91FF90EF9008950F931F93CF93DF93C6
:104780008DE291E00E940A1980E197E228EC30E086
:10479000F9013197F1F70197D9F70E941F178EEFB2
:1047A00090E00E940A198091E802805D0E944B17F8
:1047B00080E197E228EC30E0F9013197F1F70197B9
:1047C000D9F70E941F1789E391E00E940A1982E03D
:1047D00061E00E942717C2E1D3E010E00FEF909153
:1047E000DF0280910D03981769F480EE92E00E9439
:1047F000281C8091E0028F3FC1F38D3399F48091A2
:10480000DE020EC08091DE02981761F40E94451608
:104810008093E0028F3FD1F38D3321F480910D031B
:104820008093DF028091E0028D3361F4812F9FEF4E
:1048300006C0E82FF0E0EE5EFC4F90838F5F803182
:10484000C0F313C08F3329F480E20E944B1780E23B
:1048500004C00E944B178091E00288830093E0021D
:104860001F5F2196103109F0BACF8091E802815084
:104870008093E8020E941F178FEF8093E002DF9180
:10488000CF911F910F910895EF92FF920F931F9375
:10489000CF93DF9382E491E00E940A1982E061E005
:1048A0000E942717C2E2D3E010E028ECE22EF12CA0
:1048B0000FEF9091DF0280910D03981769F480EE5D
:1048C00092E00E94281C8091E0028F3FC1F38D335B
:1048D00099F48091DE020EC08091DE02981761F497
:1048E0000E9445168093E0028F3FD1F38D3321F46F
:1048F00080910D038093DF028091E0020E944B17AC
:1049000084EC99E0F7013197F1F70197D9F71F5F30
:1049100082E0612F0E9427178AE20E944B17809144
:10492000E00289930093E002143009F0C2CF0E94A4
:104930001F170093E002DF91CF911F910F91FF901D
:10494000EF9008950F931F93CF93DF9381E591E04C
:104950000E940A1982E061E00E942717C2E1D3E0B9
:1049600010E00FEF9091DF0280910D03981769F42A
:1049700080EE92E00E94281C8091E0028F3FC1F3FC
:104980008D3399F48091DE020EC08091DE0298177B
:1049900061F40E9445168093E0028F3FD1F38D337E
:1049A00021F480910D038093DF028091E0028D332A
:1049B00081F4812F9FEF06C0E82FF0E0EE5EFC4F00
:1049C00090838F5F8031C0F320E137E248EC50E004
:1049D00014C08F3329F480E20E944B1780E204C098
:1049E0000E944B178091E00288830093E0021F5FD2
:1049F0002196103109F0B6CFE7CFCA010197F1F740
:104A000021503040D1F70E941F178FEF8093E002B2
:104A1000DF91CF911F910F910895FF920F931F93F4
:104A2000CF93DF938CE591E00E940A1982E061E068
:104A30000E942717C0E1D0E008EC10E0FF24FA94B0
:104A40009091DF0280910D03981769F480EE92E057
:104A50000E94281C8091E0028F3FC1F38D3399F4AE
:104A60008091DE020EC08091DE02981761F40E94F0
:104A700045168093E0028F3FD1F38D3321F480916E
:104A80000D038093DF028091E0020E944B1784ECBB
:104A900099E0F8013197F1F70197D9F7CE018F50DE
:104AA000682F82E00E9427178AE20E944B17CE01EE
:104AB0006091E0020E943816FE01EE5EFC4F80918C
:104AC000E0028083F092E0022196C431D10509F022
:104AD000B7CF0E941F17F092E002DF91CF911F9194
:104AE0000F91FF900895DF92EF92FF920F931F9323
:104AF000CF93DF938BE691E00E940A1982E061E098
:104B00000E94271781E791E00E940A1980E197E24D
:104B100028EC30E0F9013197F1F70197D9F70E94BD
:104B20001F178BE791E00E940A1982E061E00E9462
:104B3000271732E1E32E33E0F32EC0E0D0E0DD248E
:104B4000DA940C2F9091DF0280910D03981769F48D
:104B500080EE92E00E94281C8091E0028F3FC1F31A
:104B60008D3399F48091DE020EC08091DE02981799
:104B700061F40E9445168093E0028F3FD1F38D339C
:104B800021F480910D038093DF021091E0021D3328
:104B900089F4102F0CC0812F90E06FEF0E9438161F
:104BA000E12FF0E0EE5EFC4F8FEF80831F5F10314E
:104BB00090F31EC0103241F480E20E944B17F701BF
:104BC0001083CE0160E208C0812F0E944B176091D4
:104BD000E002F7016083CE010E943816D092E00215
:104BE00021960894E11CF11CC031D10509F0A9CF30
:104BF0000E941F178FEF8093E002DF91CF911F91EA
:104C00000F91FF90EF90DF900895629FD001739F06
:104C1000F001829FE00DF11D649FE00DF11D929F58
:104C2000F00D839FF00D749FF00D659FF00D992797
:104C3000729FB00DE11DF91F639FB00DE11DF91FBB
:104C4000BD01CF0111240895A1E21A2EAA1BBB1B9E
:104C5000FD010DC0AA1FBB1FEE1FFF1FA217B30748
:104C6000E407F50720F0A21BB30BE40BF50B661F5E
:104C7000771F881F991F1A9469F760957095809522
:104C800090959B01AC01BD01CF0108952F923F92F9
:104C90004F925F926F927F928F929F92AF92BF924C
:104CA000CF92DF92EF92FF920F931F93CF93DF93F8
:104CB000CDB7DEB7CA1BDB0B0FB6F894DEBF0FBE55
:104CC000CDBF09942A88398848885F846E847D84A2
:104CD0008C849B84AA84B984C884DF80EE80FD80A4
:104CE0000C811B81AA81B981CE0FD11D0FB6F8941A
:0E4CF000DEBF0FBECDBFED010895F894FFCFDB
:104CFE00446F6F7220436F6E74726F6C00313A4F57
:104D0E0070656E20323A436C6F736520303A4261A3
:104D1E00636B0047617261676520436F6E74726FDB
:104D2E006C00436F6E74726F6C204D656E75003142
:104D3E003A5061726B2020323A446F6F72202030ED
:104D4E003A457869740048454C4C4F00456E746581
:104D5E00726564205355434345535346554C4C5945
:104D6E000057656C636F6D6500486F6D6520636CF1
:104D7E006F736564202E004552524F522100757399
:104D8E0065726E616D65204552524F5221007472EC
:104D9E00793A0074727920757365726E616D650073
:104DAE0070617373776F7264204552524F522100B7
:104DBE007472792070617373776F7264006E616DB7
:104DCE0065204552524F522100747279206E616DEA
:104DDE006500456E7465722070617373776F7264CF
:104DEE0000456E746572206E616D6500637265615B
:104DFE00742070617373776F72640048454C4C4F2A
:104E0E000053657420536574757000637265617428
:104E1E00204E616D650000000000000000000001E2
:104E2E00020203030303040404040404040405053A
:104E3E000505050505050505050505050505060612
:104E4E0006060606060606060606060606060606F4
:104E5E0006060606060606060606060606060707E2
:104E6E0007070707070707070707070707070707C4
:104E7E0007070707070707070707070707070707B4
:104E8E0007070707070707070707070707070707A4
:104E9E000707070707070707070707070707080892
:104EAE000808080808080808080808080808080874
:104EBE000808080808080808080808080808080864
:104ECE000808080808080808080808080808080854
:104EDE000808080808080808080808080808080844
:104EEE000808080808080808080808080808080834
:104EFE000808080808080808080808080808080824
:104F0E000808080808080808080808080808080813
:104F1E0008080808080808080808080808083738A4
:104F2E00392F3435362A3132332D3F303D2B060999
:104F3E00011F00000000010101011111111F0404E5
:104F4E000404040400000305191F00000000000EF5
:104F5E000A0F0202040800000202021E00000000F6
:104F6E000011111F00040704041F000000000101BE
:0A4F7E00FFFF03020103030103001B
:00000001FF
